:0400000057EF00F0C6
:10000800FACF4AF0FBCF4BF0E9CF4CF0EACF4DF0F6
:10001800E1CF4EF0E2CF4FF0D9CF50F0DACF51F028
:10002800F3CF52F0F4CF53F02AC054F02BC055F060
:1000380032C056F033C057F034C058F035C059F0CC
:1000480019EE31F0F2AA2BEF00F02DEF00F036EFA9
:1000580000F0F2A432EF00F034EF00F036EF00F0D9
:10006800A7ECA5F059C035F058C034F057C033F0AC
:1000780056C032F055C02BF054C02AF053C0F4FFDC
:1000880052C0F3FF51C0DAFF50C0D9FF4FC0E2FFA2
:100098004EC0E1FF4DC0EAFF4CC0E9FF4BC0FBFF7B
:0E00A8004AC0FAFF110013EEE2F0A8EFA3F039
:10FF8C0000600798040F0F3E0003030E00001002E0
:10FF9C000000000000000000004000404000000095
:10FFAC000000000000000000000000000000000045
:10FFBC000000000000000020000000000000000015
:10FFCC000000040000000000000000000000000021
:10FFDC000000046000000000000000000001400070
:10FFEC000020202020202020202020202020202025
:03FFFC00200000E2
:020000040001F9
:10000000720EE126000EE2228D0EE3500C0D500E12
:10001000F326000EF422EF0EF3CFE3FFF00EF4CF41
:10002000E3FFF10EE36AF20EE36A030EE66E000EE2
:10003000E66EDC0EE1242A6EFF0EE2202B6E2AC053
:10004000E6FF2BC0E6FFEB0EE3CFE6FFE3CFE6FFD4
:1000500059EC8AF0FD0E2AC0E3FFFD0EE350D8B440
:1000600034EF80F036EF80F03AEF80F0FF0E2A6E2A
:10007000A1EF83F0DE0EE3CF32F0DF0EE3CF33F0FB
:10008000E00EE3CF34F0E10EE3CF35F0EA0E32C0FC
:10009000E3FFEB0E33C0E3FFEC0E34C0E3FFED0EE5
:1000A00035C0E3FFE150EA0FD96EE250DA6EFF0E81
:1000B000DA22DFBE5EEF80F060EF80F064EF80F068
:1000C000FE0E2A6EA1EF83F08B0EE3CF34F08C0E80
:1000D000E3CF35F0060E3424D96E000E3520DA6EEB
:1000E000DF500F0BE66E7EEC92F0F70E2AC0E3FFB6
:1000F000F80E2BC0E3FFF90E2CC0E3FFFA0E2DC063
:10010000E3FFE150F70FD96EE250DA6EFF0EDA220C
:10011000850EE350DE5C860EE350DE58870EE3501A
:10012000DE58880EE350DE58D8B099EF80F09BEF90
:1001300080F09FEF80F0FD0E2A6EA1EF83F0E60EB7
:10014000E124D96EFF0EE220DA6EDECF32F0DECF90
:1001500033F0DECF34F0DECF35F0F30E32C0E3FF04
:10016000F40E33C0E3FFF50E34C0E3FFF60E35C0E6
:10017000E3FFF30EE3CF32F0F40EE3CF33F0F50EEE
:10018000E3CF34F0F60EE3CF35F0EF0E32C0E3FFED
:10019000F00E33C0E3FFF10E34C0E3FFF20E35C0C2
:1001A000E3FFE150EF0FD96EE250DA6EFF0EDA2274
:1001B000000EDE26040EDE22000EDE22000EDE22FF
:1001C0008B0EE3CF34F08C0EE3CF35F0060E3424E3
:1001D000D96E000E3520DA6EDFB8F1EF80F0F3EF64
:1001E00080F075EF81F08B0EE3CFD9FF8C0EE3CF5B
:1001F000DAFFDF50356E920E35C0E3FF930EE12437
:10020000D96EFF0EE220DA6E8B0EE3CFE9FF8C0E83
:10021000E3CFEAFFEECF32F0EECF33F0EECF34F0A3
:10022000EECF35F033C032F034C033F035C034F0A7
:10023000356A3250DF6E940EE124D96EFF0EE22053
:10024000DA6E8B0EE3CFE9FF8C0EE3CFEAFFEECF41
:1002500032F0EECF33F0EECF34F0EECF35F0110EBA
:1002600037EF81F0D8903532343233323232E82EE3
:1002700032EF81F03250DF6E950EE124D96EFF0E21
:10028000E220DA6E8B0EE3CF34F08C0EE3CF35F044
:10029000040E3424E96E000E3520EA6EEF50356E00
:1002A000050E2A6ED89035362A2E52EF81F08B0E2D
:1002B000E3CFE9FF8C0EE3CFEAFFEECF2EF0EECFD7
:1002C0002FF0EECF30F0EECF31F0190E6DEF81F060
:1002D000D890313230322F322E32E82E68EF81F052
:1002E0002E503510DF6E24EF82F08B0EE3CFD9FF56
:1002F0008C0EE3CFDAFFDECF32F0DECF33F0DECF8D
:1003000034F0DECF35F0130E8BEF81F0D89035321C
:10031000343233323232E82E86EF81F0FF0E32145F
:100320002E6E070E33142F6E000E3414306E000E36
:100330003514316E8B0EE3CFD9FF8C0EE3CFDAFF8D
:10034000FF0EDE14326EFF0EDE14336E030EDE146B
:10035000346E000EDE14356E0B0ED8903236333606
:1003600034363536E82EADEF81F02E5032102A6E3D
:100370002F5033102B6E305034102C6E31503510FE
:100380002D6E8E0E2AC0E3FF8F0E2BC0E3FF900E62
:100390002CC0E3FF910E2DC0E3FFE1508E0FD96E0C
:1003A000E250DA6EFF0EDA22FF0EDE16FF0EDE16C8
:1003B000FF0EDE161F0EDE168E0EE3CF2AF0920E13
:1003C0002AC0E3FF8F0EE124D96EFF0EE220DA6E21
:1003D000930EE124E96EFF0EE220EA6EDFCFEFFF1D
:1003E000900EE124D96EFF0EE220DA6E940EE12425
:1003F000E96EFF0EE220EA6EDFCFEFFF950EE124FB
:10040000D96EFF0EE220DA6E910EE124E96EFF0E46
:10041000E220EA6EEF50356E8B0EE3CF32F08C0E99
:10042000E3CF33F0040E3224E96E000E3320EA6E7F
:10043000EF50346E050E2A6ED89034362A2E1CEFFB
:1004400082F034503510DF6E8B0EE3CF34F08C0E1B
:10045000E3CF35F0060E3424D96E000E3520DA6E67
:10046000960EE124E96EFF0EE220EA6EDFCFEFFF89
:10047000970EE124D96EFF0EE220DA6E8B0EE3CFE9
:1004800034F08C0EE3CF35F0070E3424E96E000E05
:100490003520EA6EEF50356E8B0EE3CF32F08C0EC6
:1004A000E3CF33F0080E3224E96E000E3320EA6EFB
:1004B000EF50346ED89034343510DF6E980EE1244E
:1004C000D96EFF0EE220DA6E8B0EE3CF34F08C0E85
:1004D000E3CF35F0080E3424E96E000E3520EA6EC5
:1004E000EECF32F0EECF33F0EECF34F0EECF35F08A
:1004F000080E80EF82F0D890353234323332323207
:10050000E82E7BEF82F03250DF6E990EE124D96E37
:10051000FF0EE220DA6E8B0EE3CF34F08C0EE3CFC9
:1005200035F0080E3424E96E000E3520EA6EEECF69
:1005300032F0EECF33F0EECF34F0EECF35F0100ED8
:10054000A7EF82F0D8903532343233323232E82E8F
:10055000A2EF82F03250DF6EFE0EE36AD7EF82F038
:10056000FE0EE3CF35F0890EE3CF32F08A0EE3CFF3
:1005700033F035503224D96E000E3320DA6EFE0E81
:10058000E350346E356A080E3426000E3522920E82
:10059000E124326EFF0EE220336E34503224E96ED5
:1005A00035503320EA6EDFCFEFFFFE0EE32AFE0E5A
:1005B000E3CF35F035C02EF02F6A306A316A850EF0
:1005C000E3502E5C860EE3502F58870EE3503058D0
:1005D000880EE3503158D8A0F0EF82F0F2EF82F0AD
:1005E000B0EF82F0FB0EE36AFC0EE36A850EE3CF08
:1005F00035F0030E3516D8B400EF83F002EF83F028
:1006000051EF83F0850EE3CF34F0860EE3CF35F063
:10061000030E3416000E351634500408326E355071
:10062000D8A0E82A0008336EFB0E32C0E3FFFC0EB0
:1006300033C0E3FF080E356E850EE3503524346E6B
:10064000FE0E34C0E3FFFF0EE36A40EF83F0920E2C
:10065000E124346EFF0EE220356EFE0EE3503426A8
:10066000000E3522FF0EE3503426000E3522080E10
:100670003424D96E000E3520DA6EDF6AFF0EE32ACD
:10068000FF0EE350346E356AFB0EE350345CFC0E13
:10069000E3503558D8A04FEF83F051EF83F027EFA8
:1006A00083F0850EE3CF34F0860EE3CF35F0FB0EFA
:1006B000E3503426FC0EE3503522080E3426000E9B
:1006C000352234C0E6FF35C0E6FF900EE1242A6EE5
:1006D000FF0EE2202B6E2AC0E6FF2BC0E6FFEB0EDA
:1006E000E3CFE6FFE3CFE6FF7CEC9AF0FD0E2AC0F5
:1006F000E3FFFD0EE350D8B480EF83F082EF83F088
:1007000086EF83F0FC0E2A6EA1EF83F0840EE35097
:10071000E66E8C0EE350E66ED0ECA0F0FD0E2AC023
:10072000E3FFFD0EE350D8B498EF83F09AEF83F027
:100730009EEF83F0FB0E2A6EA1EF83F0FD0EE3CF58
:100740002AF0840EE126FF0EE22212006E0EE12650
:10075000000EE222FD0EE36AFF0EE36A910EE35003
:100760000C0D500EF326000EF422FB0EF3CFE3FF28
:10077000FC0EF4CFE3FF030EE66E000EE66EE00E15
:10078000E1242A6EFF0EE2202B6E2AC0E6FF2BC06A
:10079000E6FFF70EE3CFE6FFE3CFE6FF59EC8AF082
:1007A000FF0E2AC0E3FFFF0EE350D8B4DAEF83F068
:1007B000DCEF83F0DEEF83F015EF87F0E20EE3CF9E
:1007C00032F0E30EE3CF33F0E40EE3CF34F0E50E86
:1007D000E3CF35F0EE0E32C0E3FFEF0E33C0E3FFA0
:1007E000F00E34C0E3FFF10E35C0E3FFE150EE0F31
:1007F000D96EE250DA6EFF0EDA22DFAE02EF84F03D
:1008000004EF84F006EF84F015EF87F0EA0EE124A0
:10081000D96EFF0EE220DA6EDECF32F0DECF33F09B
:10082000DECF34F0DECF35F0F70E32C0E3FFF80E46
:1008300033C0E3FFF90E34C0E3FFFA0E35C0E3FF27
:10084000F70EE3CF2AF0FB0E2AC0E3FFF80EE3CF4A
:100850002AF0FC0E2AC0E3FFE150FB0FD96EE250F4
:10086000DA6EFF0EDA22000EDE26040EDD22080EFE
:10087000356E8C0EE3503524346EFE0E34C0E3FF2B
:10088000E150EE0FD96EE250DA6EFF0EDA22DFAAE7
:100890004CEF84F04EEF84F056EF84F0FE0EE3CF81
:1008A0002AF0040E2A26FE0E2AC0E3FFFE0EE3CF36
:1008B00035F0030E3516D8B460EF84F062EF84F0A3
:1008C00072EF84F0FE0EE3CF35F0030E3516FE0E08
:1008D000E3CF34F03550345C356E040E3526FE0E11
:1008E00035C0E3FFFE0EE3CF2AF04C0E2A647BEF07
:1008F00084F07DEF84F082EF84F04C0E356EFE0EB6
:1009000035C0E3FFFE0EE350E66E000EE66E940E79
:10091000E1242A6EFF0EE2202B6E2AC0E6FF2BC0D8
:10092000E6FFF70EE3CFE6FFE3CFE6FF08EC95F036
:10093000FF0E2AC0E3FFFF0EE350D8B4A2EF84F00D
:10094000A4EF84F0A6EF84F015EF87F09A0EE1246F
:10095000D96EFF0EE220DA6E8F0EE3CF34F0900EE8
:10096000E3CF35F0060E3424E96E000E3520EA6E32
:10097000DFCFEFFF8F0EE3CF34F0900EE3CF35F0F3
:10098000060E3424D96E000E3520DA6EDFB8CBEFB8
:1009900084F0CDEF84F038EF85F0990EE124D96E24
:1009A000FF0EE220DA6EDF50356E1F0E351635C0B1
:1009B0002EF02F6A306A316A2EC031F0306A2F6A09
:1009C0002E6A970EE124D96EFF0EE220DA6EDF5018
:1009D000356E35C02AF02B6A2C6A2D6A2CC02DF09A
:1009E0002BC02CF02AC02BF02A6A960EE350326EF0
:1009F000336A346A356A2A5032122B5033122C5023
:100A000034122D503512980EE124D96EFF0EE220DB
:100A1000DA6EDF502A6E2B6A2C6A2D6A2BC02DF0FD
:100A20002AC02CF02B6A2A6A2A5032122B50331219
:100A30002C5034122D5035122E5032102A6E2F5059
:100A400033102B6E305034102C6E315035102D6E0B
:100A50008F0EE3CFD9FF900EE3CFDAFF2AC0DEFF7F
:100A60002BC0DEFF2CC0DEFF2DC0DEFFF8EF85F0CF
:100A7000990EE124D96EFF0EE220DA6EDF50356E5A
:100A80001F0E351635C02EF02F6A306A316A2EC01F
:100A900031F0306A2F6A2E6A970EE124D96EFF0E6C
:100AA000E220DA6EDF50356E35C02AF02B6A2C6AF0
:100AB0002D6A2CC02DF02BC02CF02AC02BF02A6AF6
:100AC000960EE350326E336A346A356A2A50321217
:100AD0002B5033122C5034122D503512980EE12425
:100AE000D96EFF0EE220DA6EDF502A6E2B6A2C6A76
:100AF0002D6A2BC02DF02AC02CF02B6A2A6A2A50AE
:100B000032122B5033122C5034122D5035122E50DD
:100B100032102A6E2F5033102B6E305034102C6E42
:100B2000315035102D6E920E2AC0E3FF930E2BC06C
:100B3000E3FF940E2CC0E3FF950E2DC0E3FF920E51
:100B4000E3CF32F0930EE3CF33F0940EE3CF34F0E3
:100B5000950EE3CF35F00C0EB3EF85F0D89035321B
:100B6000343233323232E82EAEEF85F0FF0E3214DB
:100B70002E6EFF0E33142F6E030E3414306E000EE3
:100B80003514316EE150920FD96EE250DA6EFF0EDD
:100B9000DA22FF0EDE14326E070EDE14336E000E04
:100BA000DE14346E000EDE14356E120ED89032361E
:100BB000333634363536E82ED6EF85F02E503210E7
:100BC0002A6E2F5033102B6E305034102C6E315053
:100BD00035102D6E8F0EE3CFD9FF900EE3CFDAFFE5
:100BE0002AC0DEFF2BC0DEFF2CC0DEFF2DC0DEFFE3
:100BF0008F0EE3CF34F0900EE3CF35F0070E3424A0
:100C0000D96E000E3520DA6E9B0EE124E96EFF0EE0
:100C1000E220EA6EEF50010BDF6E8F0EE3CF34F06F
:100C2000900EE3CF35F0080E3424D96E000E352037
:100C3000DA6E9B0EE124E96EFF0EE220EA6EEF50C1
:100C4000356ED8903532D8903532D8903530DF6E49
:100C5000E150EE0FD96EE250DA6EFF0EDA22DFAA13
:100C600034EF86F036EF86F0C4EF86F09E0EE12476
:100C7000D96EFF0EE220DA6EDF50356EF30E35C00E
:100C8000E3FF9F0EE124D96EFF0EE220DA6EF40E30
:100C9000E124E96EFF0EE220EA6EDFCFEFFFA00E47
:100CA000E124D96EFF0EE220DA6EF50EE124E96E42
:100CB000FF0EE220EA6EDFCFEFFFA10EE124D96E36
:100CC000FF0EE220DA6EF60EE124E96EFF0EE2205E
:100CD000EA6EDFCFEFFFE150F30FD96EE250DA6E2C
:100CE000FF0EDA228F0EE3CF34F0900EE3CF35F013
:100CF000090E3424E96E000E3520EA6EDECFEEFFD9
:100D0000DECFEEFFDECFEEFFDECFEEFFFD0EE36ABD
:100D1000B1EF86F0FD0EE350346E356A0C0E3426CA
:100D2000000E3522960EE124326EFF0EE220336E65
:100D300034503224D96E35503320DA6EFD0EE3CFB5
:100D400035F08D0EE3CF32F08E0EE3CF33F0355019
:100D50003224E96E000E3320EA6EDFCFEFFFFD0E86
:100D6000E32AE150FD0FD96EE250DA6EFF0EDA226F
:100D70008C0EE350DE5CD8A0C0EF86F0C2EF86F0A8
:100D80008AEF86F010EF87F08F0EE3CF34F0900EED
:100D9000E3CF35F0090E3424D96E000E3520DA6E1B
:100DA000DE6ADE6ADE6ADD6AFD0EE36AFFEF86F068
:100DB000FD0EE350346E356A080E3426000E3522DF
:100DC000960EE124326EFF0EE220336E3450322450
:100DD000D96E35503320DA6EFD0EE3CF35F08D0E2F
:100DE000E3CF32F08E0EE3CF33F035503224E96E8C
:100DF000000E3320EA6EDFCFEFFFFD0EE32AE15055
:100E0000FD0FD96EE250DA6EFF0EDA228C0EE3503F
:100E1000DE5CD8A00EEF87F010EF87F0D8EF86F0F9
:100E2000910EE350E66E39ECA3F08C0EE126FF0E36
:100E3000E22212000C0EE126000EE222F80EE36A16
:100E4000F90EE36AFA0EE36AFB0EE36AF10EE3CFF2
:100E500034F0F20EE3CF35F0050E3424D96E000ED7
:100E60003520DA6EDF50D8A438EF87F03AEF87F0FC
:100E7000D2EF87F0F10EE3CFD9FFF20EE3CFDAFF26
:100E8000DF50356EF80E35C0E3FFF90EE124D96E60
:100E9000FF0EE220DA6EF10EE3CFE9FFF20EE3CFB0
:100EA000EAFFEECF32F0EECF33F0EECF34F0EECFFC
:100EB00035F033C032F034C033F035C034F0356A29
:100EC0003250DF6EFA0EE124D96EFF0EE220DA6EA8
:100ED000F10EE3CFE9FFF20EE3CFEAFFEECF32F0FF
:100EE000EECF33F0EECF34F0EECF35F0110E7EEFD3
:100EF00087F0D8903532343233323232E82E79EFFF
:100F000087F03250DF6EFB0EE124D96EFF0EE22037
:100F1000DA6EF10EE3CF34F0F20EE3CF35F0050ECA
:100F20003424E96E000E3520EA6EEF50356E060E61
:100F30002A6ED89035362A2E99EF87F0F10EE3CF3E
:100F400032F0F20EE3CF33F0040E3224E96E000EDD
:100F50003320EA6EEF50346E050E2A6ED890343688
:100F60002A2EAEEF87F0F10EE3CFE9FFF20EE3CFCA
:100F7000EAFFEECF2EF0EECF2FF0EECF30F0EECF37
:100F800031F0190EC9EF87F0D890313230322F325C
:100F90002E32E82EC4EF87F02E5034103510DF6E5D
:100FA00097EF88F0F10EE3CFD9FFF20EE3CFDAFF2F
:100FB000DECF32F0DECF33F0DECF34F0DECF35F0EF
:100FC000130EE8EF87F0D8903532343233323232B4
:100FD000E82EE3EF87F0FF0E32142E6E070E331467
:100FE0002F6E000E3414306E000E3514316EF10E7B
:100FF000E3CFD9FFF20EE3CFDAFFFF0EDE14326E3D
:10100000FF0EDE14336E030EDE14346E000EDE149B
:10101000356E0B0ED8903236333634363536E82EF0
:101020000AEF88F02E5032102A6E2F5033102B6E9C
:10103000305034102C6E315035102D6EF40E2AC005
:10104000E3FFF50E2BC0E3FFF60E2CC0E3FFF70E17
:101050002DC0E3FFE150F40FD96EE250DA6EFF0EBF
:10106000DA22FF0EDE16FF0EDE16FF0EDE161F0E54
:10107000DE16F40EE3CF2AF0F80E2AC0E3FFF50ED9
:10108000E124D96EFF0EE220DA6EF90EE124E96E5A
:10109000FF0EE220EA6EDFCFEFFFF60EE124D96EFD
:1010A000FF0EE220DA6EFA0EE124E96EFF0EE22076
:1010B000EA6EDFCFEFFFFB0EE124D96EFF0EE220D8
:1010C000DA6EF70EE124E96EFF0EE220EA6EEF50D1
:1010D000356EF10EE3CF32F0F20EE3CF33F0050EB2
:1010E0003224E96E000E3320EA6EEF50346E060EA5
:1010F0002A6ED89034362A2E79EF88F0F10EE3CF9D
:1011000032F0F20EE3CF33F0040E3224E96E000E1B
:101110003320EA6EEF50336E050E2A6ED8903336C8
:101120002A2E8EEF88F0335034103510DF6EF30E18
:10113000E350080DF3CF34F0F4CF35F0F00E342443
:10114000326E010E3520336EFE0E32C0E3FFFF0E0D
:1011500033C0E3FFF80EE3CFE6FFE3CFE6FFE3CFD4
:10116000E6FFE3CFE6FFFA0EE3CFE6FFE3CFE6FFCD
:1011700069EC9DF0F10EE126FF0EE22212000C0E4A
:10118000E126000EE222F80EE36AF90EE36AFA0E97
:10119000E36AFB0EE36AF00EE350D8A4D2EF88F0C6
:1011A000D4EF88F06CEF89F0F10EE3CFD9FFF20EA7
:1011B000E3CFDAFFDF50356EF80E35C0E3FFF90EEE
:1011C000E124D96EFF0EE220DA6EF10EE3CFE9FFE3
:1011D000F20EE3CFEAFFEECF32F0EECF33F0EECFF8
:1011E00034F0EECF35F033C032F034C033F035C0D8
:1011F00034F0356A3250DF6EFA0EE124D96EFF0EFC
:10120000E220DA6EF10EE3CFE9FFF20EE3CFEAFF60
:10121000EECF32F0EECF33F0EECF34F0EECF35F04C
:10122000110E18EF89F0D890353234323332323221
:10123000E82E13EF89F03250DF6EFB0EE124D96EF9
:10124000FF0EE220DA6EF10EE3CF34F0F20EE3CFC0
:1012500035F0050E3424E96E000E3520EA6EEF50AD
:10126000356E060E2A6ED89035362A2E33EF89F069
:10127000F10EE3CF32F0F20EE3CF33F0040E32245E
:10128000E96E000E3320EA6EEF50346E050E2A6EC2
:10129000D89034362A2E48EF89F0F10EE3CFE9FFDB
:1012A000F20EE3CFEAFFEECF2EF0EECF2FF0EECF2F
:1012B00030F0EECF31F0190E63EF89F0D890313273
:1012C00030322F322E32E82E5EEF89F02E5034105D
:1012D0003510DF6E31EF8AF0F10EE3CFD9FFF20E59
:1012E000E3CFDAFFDECF32F0DECF33F0DECF34F003
:1012F000DECF35F0130E82EF89F0D89035323432DC
:1013000033323232E82E7DEF89F0FF0E32142E6E2A
:10131000070E33142F6E000E3414306E000E351489
:10132000316EF10EE3CFD9FFF20EE3CFDAFFFF0EFD
:10133000DE14326EFF0EDE14336E030EDE14346ED6
:10134000000EDE14356E0B0ED8903236333634363E
:101350003536E82EA4EF89F02E5032102A6E2F5029
:1013600033102B6E305034102C6E315035102D6EE2
:10137000F40E2AC0E3FFF50E2BC0E3FFF60E2CC0DF
:10138000E3FFF70E2DC0E3FFE150F40FD96EE250FA
:10139000DA6EFF0EDA22FF0EDE16FF0EDE16FF0EED
:1013A000DE161F0EDE16F40EE3CF2AF0F80E2AC06A
:1013B000E3FFF50EE124D96EFF0EE220DA6EF90E9E
:1013C000E124E96EFF0EE220EA6EDFCFEFFFF60EBA
:1013D000E124D96EFF0EE220DA6EFA0EE124E96E06
:1013E000FF0EE220EA6EDFCFEFFFFB0EE124D96EA5
:1013F000FF0EE220DA6EF70EE124E96EFF0EE22026
:10140000EA6EEF50356EF10EE3CF32F0F20EE3CF1D
:1014100033F0050E3224E96E000E3320EA6EEF50F1
:10142000346E060E2A6ED89034362A2E13EF8AF0C8
:10143000F10EE3CF32F0F20EE3CF33F0040E32249C
:10144000E96E000E3320EA6EEF50336E050E2A6E01
:10145000D89033362A2E28EF8AF0335034103510C6
:10146000DF6EF30EE350080DF3CF34F0F4CF35F018
:10147000F40E3424326E010E3520336EFE0E32C06F
:10148000E3FFFF0E33C0E3FFF80EE3CFE6FFE3CF49
:10149000E6FFE3CFE6FFE3CFE6FFFA0EE3CFE6FF9A
:1014A000E3CFE6FF69EC9DF0F00EE126FF0EE222AD
:1014B00012000D0EE126000EE222ED0EE3CF34F015
:1014C000EE0EE3CF35F0D89034363536D89034363A
:1014D0003536020E3426000E3522FB0E34C0E3FFF3
:1014E000FC0E35C0E3FFF20EE124D96EFF0EE220C0
:1014F000DA6EDF500F0B300F0101006FF10EE3CFFA
:1015000001F1020E346E000E356EF70E34C0E3FFAB
:10151000F80E35C0E3FFA9EF8AF0F70EE3CF34F001
:10152000F80EE3CF35F0000E3424D96E010E3520CD
:10153000DA6EDF6AF70EE350010F2A6EF70E2AC04B
:10154000E3FF2A6AF80EE3502A202A6EF80E2AC01A
:10155000E3FFFB0EE3CF34F0FC0EE3CF35F0F70EE4
:10156000E3CF32F0F80EE3CF33F03450325C355035
:101570003358D8A0BEEF8AF0C0EF8AF08DEF8AF022
:10158000FB0EE3CFE6FFE3CFE6FF000EE66E020EB2
:10159000E66E000EE66E010EE66E06EC9FF0FF0EA4
:1015A0002AC0E3FFFF0EE350D8B4D9EF8AF0DBEF97
:1015B0008AF0E0EF8AF0FF0EE3CF2AF098EF8BF08D
:1015C000020E346E000E356EFD0E34C0E3FFFE0ECB
:1015D00035C0E3FFF70EE36AF80EE36A7FEF8BF0A6
:1015E000F30EE36AF40EE36AF50EE36AF60EE36ABD
:1015F000F90EE36AFA0EE36AFD0EE3CF34F0FE0E55
:10160000E3CF35F0000E3424D96E020E3520DA6EA9
:10161000F90EE3CF34F0FA0EE3CF35F0F30EE12408
:10162000326EFF0EE220336E34503224E96E3550B4
:101630003320EA6EDFCFEFFFF90EE350010F2A6E81
:10164000F90E2AC0E3FF2A6AFA0EE3502A202A6E16
:10165000FA0E2AC0E3FFFD0EE350010F2A6EFD0EC5
:101660002AC0E3FF2A6AFE0EE3502A202A6EFE0EED
:101670002AC0E3FFFA0EE3500CE1F90EE3CF2AF0A3
:10168000040E2A5ED8A047EF8BF049EF8BF0FCEFF9
:101690008AF0E150F30FD96EE250DA6EFF0EDA22D3
:1016A000F70EE3CF34F0F80EE3CF35F0D8903436B0
:1016B0003536D89034363536EF0EE3CF32F0F00EB3
:1016C000E3CF33F034503224E96E35503320EA6EE4
:1016D000DECFEEFFDECFEEFFDECFEEFFDECFEEFFA2
:1016E000F70EE350010F2A6EF70E2AC0E3FF2A6AB5
:1016F000F80EE3502A202A6EF80E2AC0E3FFED0E02
:10170000E3CF34F0EE0EE3CF35F0F70EE3CF32F057
:10171000F80EE3CF33F03450325C35503358D8A054
:1017200094EF8BF096EF8BF0F0EF8AF0DBEF8AF01E
:10173000ED0EE126FF0EE2221200E652E652E652DC
:10174000E6528D0EF66EFF0EF76E000EF86E090073
:10175000F5CF32F00900F5CF33F00900F5CF34F0C2
:101760000900F5CF35F0FC0E32C0E3FFFD0E33C0AB
:10177000E3FFFE0E34C0E3FFFF0E35C0E3FFFA0EB9
:10178000E3CFD9FFFB0EE3CFDAFFDF501F0B356E3F
:10179000E150FC0FD96EE250DA6EFF0EDA22DF5014
:1017A0003518E00B3518DF6EFA0EE3CFD9FFFB0ECC
:1017B000E3CFDAFFE150FC0FE96EE250EA6EFF0E74
:1017C000EA22EF9ADFAAE6EF8BF0EF8AFA0EE3CF78
:1017D000D9FFFB0EE3CFDAFFE150FC0FE96EE250D8
:1017E000EA6EFF0EEA22EF9CDFACF8EF8BF0EF8C95
:1017F000FA0EE3CFD9FFFB0EE3CFDAFFFD0EE124B3
:10180000E96EFF0EE220EA6EEF90DFAE09EF8CF09A
:10181000EF80FA0EE3CF34F0FB0EE3CF35F0010E8C
:101820003424D96E000E3520DA6EDF50030B356E8E
:10183000FD0EE124D96EFF0EE220DA6E3546DF5050
:101840003518F90B3518DF6EFA0EE3CF34F0FB0EC6
:10185000E3CF35F0010E3424D96E000E3520DA6E58
:10186000FD0EE124E96EFF0EE220EA6EEF98DFA4A0
:101870003BEF8CF0EF88FA0EE3CF34F0FB0EE3CFB2
:1018800035F0010E3424D96E000E3520DA6EFE0ECE
:10189000E124E96EFF0EE220EA6EEF90DFA652EF40
:1018A0008CF0EF80FA0EE3CF34F0FB0EE3CF35F08F
:1018B000010E3424D96E000E3520DA6EFE0EE124BE
:1018C000E96EFF0EE220EA6EEF92DFA869EF8CF07E
:1018D000EF82FA0EE3CF34F0FB0EE3CF35F0010ECA
:1018E0003424D96E000E3520DA6EFE0EE124E96E46
:1018F000FF0EE220EA6EEF94DFAA80EF8CF0EF8417
:10190000FA0EE3CF34F0FB0EE3CF35F0010E3424B2
:10191000D96E000E3520DA6EFE0EE124E96EFF0E60
:10192000E220EA6EEF96DFAC97EF8CF0EF86FA0ECE
:10193000E3CF34F0FB0EE3CF35F0010E3424D96E43
:10194000000E3520DA6EFE0EE124E96EFF0EE22075
:10195000EA6EEF98DFAEAEEF8CF0EF88FA0EE3CFD1
:1019600034F0FB0EE3CF35F0020E3424D96E000EB6
:101970003520DA6EDF500F0B356EFF0EE124D96E85
:10198000FF0EE220DA6E353ADF5035180F0B3518AE
:10199000DF6EFC0EE3CFE6FFE3CFE6FFE3CFE6FF2B
:1019A000E3CFE6FF000EE66E000EE66E69EC9DF0FA
:1019B000FA0EE126FF0EE2221200E652E652E6524D
:1019C000E6528D0EF66EFF0EF76E000EF86E0900F1
:1019D000F5CF32F00900F5CF33F00900F5CF34F040
:1019E0000900F5CF35F0FC0E32C0E3FFFD0E33C029
:1019F000E3FFFE0E34C0E3FFFF0E35C0E3FFE1500E
:101A0000FC0FD96EE250DA6EFF0EDA22DF501F0BA8
:101A1000356EFA0EE3CFD9FFFB0EE3CFDAFFDF50CE
:101A20003518E00B3518DF6EE150FC0FD96EE2502F
:101A3000DA6EFF0EDA22FA0EE3CFE9FFFB0EE3CFF8
:101A4000EAFFEF9ADFAA26EF8DF0EF8AE150FC0F54
:101A5000D96EE250DA6EFF0EDA22FA0EE3CFE9FF1A
:101A6000FB0EE3CFEAFFEF9CDFAC38EF8DF0EF8C9D
:101A7000FD0EE124D96EFF0EE220DA6EFA0EE3CFFE
:101A8000E9FFFB0EE3CFEAFFEF9EDFA049EF8DF009
:101A9000EF8EFD0EE124D96EFF0EE220DA6EDF300C
:101AA000030B356EFA0EE3CF32F0FB0EE3CF33F0CB
:101AB000010E3224D96E000E3320DA6EDF50351855
:101AC000FC0B3518DF6EFD0EE124D96EFF0EE2200F
:101AD000DA6EFA0EE3CF34F0FB0EE3CF35F0010EF1
:101AE0003424E96E000E3520EA6EEF94DFA87AEF19
:101AF0008DF0EF84FE0EE124D96EFF0EE220DA6E47
:101B0000FA0EE3CF34F0FB0EE3CF35F0010E3424B0
:101B1000E96E000E3520EA6EEF96DFA091EF8DF0B2
:101B2000EF86FE0EE124D96EFF0EE220DA6EFA0E89
:101B3000E3CF34F0FB0EE3CF35F0010E3424E96E31
:101B4000000E3520EA6EEF98DFA2A8EF8DF0EF8847
:101B5000FE0EE124D96EFF0EE220DA6EFA0EE3CF1C
:101B600034F0FB0EE3CF35F0010E3424E96E000EA5
:101B70003520EA6EEF9ADFA4BFEF8DF0EF8AFE0EFC
:101B8000E124D96EFF0EE220DA6EFA0EE3CF34F0D4
:101B9000FB0EE3CF35F0010E3424E96E000E352044
:101BA000EA6EEF9CDFA6D6EF8DF0EF8CFE0EE124FF
:101BB000D96EFF0EE220DA6EFA0EE3CF34F0FB0EA0
:101BC000E3CF35F0010E3424E96E000E3520EA6EC5
:101BD000EF9EDFA8EDEF8DF0EF8EFF0EE124D96EC2
:101BE000FF0EE220DA6EDF380F0B356EFA0EE3CF10
:101BF00032F0FB0EE3CF33F0020E3224D96E000E2A
:101C00003320DA6EDF503518F00B3518DF6EFA0E20
:101C1000E126FF0EE2221200E652E652E652E652BA
:101C2000910EF66EFF0EF76E000EF86E0900F5CFFE
:101C300032F00900F5CF33F00900F5CF34F0090098
:101C4000F5CF35F0FC0E32C0E3FFFD0E33C0E3FFED
:101C5000FE0E34C0E3FFFF0E35C0E3FFC8EF8EF089
:101C6000FF0EE124D96EFF0EE220DA6EDF6AFE0E6F
:101C7000E124D96EFF0EE220DA6E3E0EDF6EFD0E1D
:101C8000E124D96EFF0EE220DA6EDF50800B0F09DF
:101C9000DF6EE150FC0FD96EE250DA6EFF0EDA22F1
:101CA000DF50800B0F09DF6E1EEF8FF0FF0EE12477
:101CB000D96EFF0EE220DA6EDF6AFE0EE124D96EE5
:101CC000FF0EE220DA6E7E0EDF6EFD0EE124D96E8D
:101CD000FF0EE220DA6EDF50800B1F09DF6EE1504D
:101CE000FC0FD96EE250DA6EFF0EDA22DF50800B65
:101CF0001F09DF6E1EEF8FF0FF0EE124D96EFF0E7D
:101D0000E220DA6EDF6AFE0EE124D96EFF0EE220D9
:101D1000DA6E1E0EDF6EFD0EE124D96EFF0EE2209C
:101D2000DA6EDF50800B0709DF6EE150FC0FD96ED1
:101D3000E250DA6EFF0EDA22DF50800B0709DF6E09
:101D40001EEF8FF0FF0EE124D96EFF0EE220DA6E57
:101D5000DF6AFE0EE124D96EFF0EE220DA6EFE0E7F
:101D6000DF6EFD0EE124D96EFF0EE220DA6EDF5049
:101D7000800B3F09DF6EE150FC0FD96EE250DA6E46
:101D8000FF0EDA22DF50800B3F09DF6E1EEF8FF06F
:101D9000FB0EE350346E356A3550000AD8B4D3EFE9
:101DA0008EF02DEF8FF03450000AD8B430EF8EF063
:101DB000010AD8B430EF8EF0030AD8B430EF8EF0B9
:101DC000010AD8B430EF8EF0070AD8B430EF8EF0A5
:101DD000010AD8B430EF8EF0030AD8B430EF8EF099
:101DE000010AD8B430EF8EF00F0AD8B456EF8EF057
:101DF000010AD8B456EF8EF0030AD8B456EF8EF02D
:101E0000010AD8B456EF8EF0070AD8B456EF8EF018
:101E1000010AD8B456EF8EF0030AD8B456EF8EF00C
:101E2000010AD8B47CEF8EF01F0AD8B47CEF8EF094
:101E3000010AD8B4A2EF8EF02DEF8FF0FC0EE3CFA5
:101E4000E6FFE3CFE6FFE3CFE6FFE3CFE6FF040ED6
:101E5000E66E000EE66E69EC9DF0FB0EE126FF0ECD
:101E6000E2221200DEEF8FF0FE0EE3CFD9FFFF0E6D
:101E7000E3CFDAFFDF50030AD8A441EF8FF043EF3E
:101E80008FF0FFEF8FF0050E5E6EFFEF8FF0FE0E0E
:101E9000E3CFD9FFFF0EE3CFDAFFDF50020AD8A469
:101EA00054EF8FF056EF8FF05AEF8FF0010E5E6E09
:101EB0006BEF8FF0FE0EE3CFD9FFFF0EE3CFDAFF1B
:101EC000DF50080AD8A467EF8FF069EF8FF06BEF4F
:101ED0008FF0060E5E6EFE0EE3CFD9FFFF0EE3CF4E
:101EE000DAFFDF50090AD8A478EF8FF07AEF8FF08D
:101EF0007EEF8FF0070E5E6EFFEF8FF0FE0EE3CFEA
:101F0000D9FFFF0EE3CFDAFFDF50040AD8A48BEF2E
:101F10008FF08DEF8FF0FFEF8FF07AEF8FF00A5098
:101F20000B10D8A496EF8FF098EF8FF09AEF8FF008
:101F300043EF8FF00BBEA5EF8FF00B5008E10A04C2
:101F4000D8A0A5EF8FF0A7EF8FF0FFEF8FF0FE0E78
:101F5000E3CFD9FFFF0EE3CFDAFFDF50040AD8B496
:101F6000B4EF8FF0B6EF8FF0FFEF8FF0030E5E6EE1
:101F7000FFEF8FF0FE0EE3CFD9FFFF0EE3CFDAFFC6
:101F8000DF50020AD8A4C7EF8FF0C9EF8FF0CDEF72
:101F90008FF0010E5E6EFFEF8FF0FE0EE3CFD9FFE4
:101FA000FF0EE3CFDAFFDF50090AD8A4DAEF8FF093
:101FB000DCEF8FF0FFEF8FF043EF8FF05E50346E69
:101FC000356A3550000AD8B4E8EF8FF0FFEF8FF094
:101FD0003450010AD8B434EF8FF0020AD8B4BAEF03
:101FE0008FF0060AD8B447EF8FF0030AD8B46BEF2E
:101FF0008FF0010AD8B48FEF8FF0FFEF8FF05E50B3
:102000005D18D8A406EF90F008EF90F00AEF90F07A
:1020100053EF90F05EC05DF02EEF90F0000EE66E94
:10202000000EE66EF9EC9CF053EF90F0010EE66EB8
:102030000A0EE66EF9EC9CF053EF90F041EC94F050
:10204000080E2B6EEE0E2A6E310EE82EFED72A2ECB
:10205000FCD72B2EFAD7000053EF90F05E50346E71
:10206000356A3550000AD8B438EF90F053EF90F04D
:102070003450010AD8B40EEF90F0020AD8B453EFEE
:1020800090F0070AD8B453EF90F0010AD8B416EFD5
:1020900090F0030AD8B41EEF90F0010AD8B453EFC1
:1020A00090F053EF90F0E552E5521200180EE12641
:1020B000000EE222F80EE1242A6EFF0EE2202B6EC3
:1020C0002AC0E6FF2BC0E6FFE60EE1242A6EFF0ED3
:1020D000E2202B6E2AC0E6FF2BC0E6FFDCECA3F06B
:1020E0002A50D8A476EF90F078EF90F072EF91F04C
:1020F00034EF91F0F80EE3CF0FF0F80EE350D8A4D0
:1021000084EF90F086EF90F0A4EF90F0000EE66E72
:10211000000EE66E020EE66EDA0EE66E260EE66E35
:10212000010EE66ED5EC9DF0000EE66E000EE66E3A
:10213000020EE66E640EE66E1E0EE66E010EE66E92
:10214000D5EC9DF072EF91F0000EE66E000EE66E9B
:10215000030EE66EDA0EE66E260EE66E010EE66EF3
:10216000D5EC9DF0000EE66E000EE66E030EE66EF8
:10217000640EE66E1E0EE66E010EE66ED5EC9DF068
:1021800072EF91F0F80EE3CF0DF0F80EE3CF2AF0E6
:10219000060E2A64CEEF90F0D0EF90F0E0EF90F0D2
:1021A000000EE66E000EE66E040EE66EDA0EE66EC9
:1021B000260EE66E010EE66ED5EC9DF072EF91F004
:1021C000F80EE3CF2AF0060E2A60E9EF90F0EBEF6D
:1021D00090F072EF91F0000EE66E000EE66E0A0EC1
:1021E000E66EDA0EE66E260EE66E010EE66ED5ECB3
:1021F0009DF072EF91F0F80EE3CF0EF0F80EE3CF02
:102200002AF00A0E2A6407EF91F009EF91F019EF16
:1022100091F0000EE66E000EE66E080EE66E640E9D
:10222000E66E1E0EE66E010EE66ED5EC9DF072EFC8
:1022300091F0F80EE3CF2AF00A0E2A6022EF91F017
:1022400024EF91F072EF91F0000EE66E000EE66E54
:10225000090EE66E640EE66E1E0EE66E010EE66E6A
:10226000D5EC9DF072EF91F0E150E80FD96EE2509D
:10227000DA6EFF0EDA22F00EDE14326E070EDE1476
:10228000336E000EDE14346E000EDE14356E3550E3
:10229000000AD8B46BEF91F072EF91F03350000A5E
:1022A000D8B459EF91F0010AD8B464EF91F072EF0D
:1022B00091F03250400AD8B4C2EF90F0100AD8B46E
:1022C0007AEF90F072EF91F03250400AD8B4FBEF01
:1022D00090F072EF91F03450000AD8B44EEF91F0C4
:1022E00072EF91F0E80EE126FF0EE22212000D0ED1
:1022F000E126000EE22298988F88BEECA5F0F20E3F
:10230000E350E66E0CEC8EF0F70EE1242A6EFF0E21
:10231000E2202B6E2AC0E6FF2BC0E6FFDDEC8CF03E
:10232000E150F70FD96EE250DA6EFF0EDA22DF8A43
:10233000F80EE124D96EFF0EE220DA6EDF8CF80E83
:10234000E124D96EFF0EE220DA6EDF8EF70EE12473
:102350002A6EFF0EE2202B6E2AC0E6FF2BC0E6FF9E
:102360009DEC8BF0E150FF0FD96EE250DA6EFF0E5C
:10237000DA22DF50C10B1609DF6EE150FF0FD96E74
:10238000E250DA6EFF0EDA22DF80FF0EE1242A6EC1
:10239000FF0EE2202B6E2AC0E6FF2BC0E6FF68ECA2
:1023A0009FF0F30EE1242A6EFF0EE2202B6E2AC06E
:1023B000E6FF2BC0E6FF0DEC9CF0F30EE36AE32A88
:1023C000F50EE124D96EFF0EE220DA6E070EDF6E05
:1023D000F60EE124D96EFF0EE220DA6E050EDF6EF6
:1023E000F30EE1242A6EFF0EE2202B6E2AC0E6FFD8
:1023F0002BC0E6FF3FEC99F0FD0EE1242A6EFF0EA4
:10240000E2202B6E2AC0E6FF2BC0E6FFDFEC99F03E
:10241000FE0EE124D96EFF0EE220DA6EDF50E00BF3
:102420000409DF6EFE0EE124D96EFF0EE220DA6EA3
:10243000E00EDF12E150FD0FD96EE250DA6EFF0EB2
:10244000DA22C10EDF16FD0EE1242A6EFF0EE22015
:102450002B6E2AC0E6FF2BC0E6FF010EE66ECEEC27
:1024600095F0FB0EE124D96EFF0EE220DA6E0F0E1E
:10247000DF6EFC0EE124D96EFF0EE220DA6E070E4D
:10248000DF6EFA0EE36AE32AFA0EE1242A6EFF0EEB
:10249000E2202B6E2AC0E6FF2BC0E6FF020EE66E9E
:1024A0009EEC98F0270EE66E000EE66E0CECA6F0A1
:1024B000000EE66E000EE66E000EE66E000EE66E94
:1024C000D4ECA5F071ECA4F0F10EE304D8A46BEF0A
:1024D00092F06DEF92F075EF92F0020EE66E000E44
:1024E000E66E000EE66E0EECA4F0060EE66EF6EC5E
:1024F000A2F0F10EE126FF0EE2221200E652E652B1
:10250000E652E652FC0EE36AFD0EE36AFE0EE36A53
:10251000FF0EE36A00000000FB0EE3CF2AF0090E75
:102520002A6095EF92F097EF92F032EF93F0FB0E66
:10253000E3CF35F035C02EF02F6A306A316AFC0ED9
:102540002EC0E3FFFD0E2FC0E3FFFE0E30C0E3FF01
:10255000FF0E31C0E3FF5CEF93F00C0E326E336A76
:10256000346A356AFC0E32C0E3FFFD0E33C0E3FF70
:10257000FE0E34C0E3FFFF0E35C0E3FF5CEF93F0C7
:10258000100E326E336A346A356AFC0E32C0E3FFD5
:10259000FD0E33C0E3FFFE0E34C0E3FFFF0E35C077
:1025A000E3FF5CEF93F0140E326E336A346A356ADF
:1025B000FC0E32C0E3FFFD0E33C0E3FFFE0E34C05D
:1025C000E3FFFF0E35C0E3FF5CEF93F0180E326EB1
:1025D000336A346A356AFC0E32C0E3FFFD0E33C045
:1025E000E3FFFE0E34C0E3FFFF0E35C0E3FF5CEFF8
:1025F00093F0200E326E336A346A356AFC0E32C0B4
:10260000E3FFFD0E33C0E3FFFE0E34C0E3FFFF0E19
:1026100035C0E3FF5CEF93F0300E326E336A346AFC
:10262000356AFC0E32C0E3FFFD0E33C0E3FFFE0E41
:1026300034C0E3FFFF0E35C0E3FF5CEF93F0400EC4
:10264000326E336A346A356AFC0E32C0E3FFFD0E27
:1026500033C0E3FFFE0E34C0E3FFFF0E35C0E3FFDF
:102660005CEF93F0FB0EE350346E356A3550000A90
:10267000D8B43DEF93F05CEF93F03450090AD8B42E
:10268000ADEF92F0030AD8B4C0EF92F0010AD8B4CB
:10269000D3EF92F0070AD8B4E6EF92F0010AD8B46B
:1026A000F9EF92F0030AD8B40CEF93F0010AD8B412
:1026B0001FEF93F05CEF93F0FC0EE3CF2AF0FD0EDA
:1026C000E3CF2BF0FE0EE3CF2CF0FF0EE3CF2DF087
:1026D000FB0EE126FF0EE2221200DBEF93F0FE0E6E
:1026E000E3CFD9FFFF0EE3CFDAFFDF50E806D8A42F
:1026F0007CEF93F07EEF93F0F8EF93F0010E256EF0
:10270000F8EF93F0FE0EE3CFD9FFFF0EE3CFDAFF31
:10271000DF50030AD8A48FEF93F091EF93F0F8EF16
:1027200093F0020E256EF8EF93F0FE0EE3CFD9FF83
:10273000FF0EE3CFDAFFDF50020AD8A4A2EF93F036
:10274000A4EF93F0A6EF93F07EEF93F0FE0EE3CFAD
:10275000D9FFFF0EE3CFDAFFDF50040AD8A4B3EFAE
:1027600093F0B5EF93F0F8EF93F0030E256EF8EFCA
:1027700093F0FE0EE3CFD9FFFF0EE3CFDAFFDF5079
:10278000020AD8A4C6EF93F0C8EF93F0CAEF93F013
:102790007EEF93F0FE0EE3CFD9FFFF0EE3CFDAFF1B
:1027A000DF500A0AD8A4D7EF93F0D9EF93F0F8EFEF
:1027B00093F091EF93F02550346E356A3550000A4E
:1027C000D8B4E5EF93F0F8EF93F03450000AD8B4A2
:1027D0006FEF93F0010AD8B482EF93F0030AD8B4F4
:1027E00095EF93F0010AD8B4B9EF93F0F8EF93F0B6
:1027F00025502418D8A4FFEF93F001EF94F003EFD5
:1028000094F03EEF94F025C024F021EF94F0000EF8
:10281000E66E79ECA0F0000EE66E1FECA0F03EEF45
:1028200094F0320EE66E79ECA0F0320EE66E1FECFC
:10283000A0F03EEF94F0640EE66E1FECA0F03EEFC9
:1028400094F02550346E356A3550000AD8B42BEF19
:1028500094F03EEF94F03450000AD8B43EEF94F078
:10286000010AD8B407EF94F0030AD8B411EF94F03A
:10287000010AD8B41BEF94F03EEF94F0E552E55214
:1028800012001D0EE126000EE222FF0E0EC0E3FF35
:10289000FF0EE3CF2AF00A0E2A6451EF94F053EFB3
:1028A00094F08BEF94F0FF0EE350346E356A5F5076
:1028B000326E336A020E3226000E33223450325CFE
:1028C0003350800A2A6E3550800A2A58D8A06BEF00
:1028D00094F06DEF94F079EF94F0FF0EE350346EC6
:1028E000356AE50E34C0E3FFE60E35C0E3FF86EF40
:1028F00094F05F50346E356A020E3426000E352295
:10290000E50E34C0E3FFE60E35C0E3FFE50EE3CF8E
:102910005FF0BAEF94F0FE0E5F24346E356AFF0E5E
:10292000352235BE9FEF94F0355007E10B0E345C35
:10293000D8B09DEF94F09FEF94F0ABEF94F00A0EB7
:10294000346E000E356EE30E34C0E3FFE40E35C086
:10295000E3FFB7EF94F0FE0E5F24346E356AFF0E8E
:102960003522E30E34C0E3FFE40E35C0E3FFE30E8F
:10297000E3CF5FF020EE90F0100E2A6EE70EDECF70
:10298000E3FFE8282A2EFBD7120E326E010E336EBB
:10299000000E346E000E356EE70E32C0E3FFE80E17
:1029A00033C0E3FFE90E34C0E3FFEA0E35C0E3FFB6
:1029B000ED0EE124D96EFF0EE220DA6EDF50F00B4F
:1029C0000209DF6EF70E5FC0E3FFF80EE124D96E57
:1029D000FF0EE220DA6E010EDF6EF70EE1242A6EA2
:1029E000FF0EE2202B6E2AC0E6FF2BC0E6FFE50EAD
:1029F000E1242A6EFF0EE2202B6E2AC0E6FF2BC0D8
:102A0000E6FF27ECA1F0E30EE126FF0EE222120022
:102A1000050EE126000EE222F50EE350020F346EA1
:102A2000F60EE3CF35F0000E3522FD0E34C0E3FF85
:102A3000FE0E35C0E3FFFA0EE124D96EFF0EE22050
:102A4000DA6EDF500F0B300F0101006FF90EE3CF8C
:102A500001F1020E346E000E356EFB0E34C0E3FF42
:102A6000FC0E35C0E3FF51EF95F0FB0EE3CF34F0E1
:102A7000FC0EE3CF35F0000E3424D96E010E352064
:102A8000DA6EDF6AFB0EE350010F2A6EFB0E2AC0DE
:102A9000E3FF2A6AFC0EE3502A202A6EFC0E2AC0AD
:102AA000E3FFFD0EE3CF34F0FE0EE3CF35F0FB0E77
:102AB000E3CF32F0FC0EE3CF33F03450325C3550CC
:102AC0003358D8A066EF95F068EF95F035EF95F0A4
:102AD000FD0EE3CFE6FFE3CFE6FF000EE66E020E4B
:102AE000E66E000EE66E010EE66E06EC9FF0FF0E3F
:102AF0002AC0E3FFFB0EE36AFC0EE36AAFEF95F03A
:102B0000FB0EE3CF34F0FC0EE3CF35F0020E34249D
:102B1000D96E020E3520DA6EFB0EE3CF34F0FC0ED8
:102B2000E3CF35F0F70EE3CF32F0F80EE3CF33F01A
:102B300034503224E96E35503320EA6EDFCFEFFF98
:102B4000FB0EE350010F2A6EFB0E2AC0E3FF2A6A38
:102B5000FC0EE3502A202A6EFC0E2AC0E3FFF50E7D
:102B6000E3CF34F0F60EE3CF35F0FB0EE3CF32F0D7
:102B7000FC0EE3CF33F03450325C35503358D8A0DC
:102B8000C4EF95F0C6EF95F080EF95F0FF0EE3CF20
:102B90002AF0F50EE126FF0EE2221200070EE126D2
:102BA000000EE222DD0EF66EFF0EF76E000EF86EDE
:102BB0000900F5CF32F00900F5CF33F00900F5CF69
:102BC00034F00900F5CF35F0F90E32C0E3FFFA0E0C
:102BD00033C0E3FFFB0E34C0E3FFFC0E35C0E3FF60
:102BE000E150F90FD96EE250DA6EFF0EDA22DF8E75
:102BF000F60EE3CF34F0F70EE3CF35F0010E3424B8
:102C0000D96E000E3520DA6EDF501F0B356EFC0ECC
:102C1000E124D96EFF0EE220DA6EDF503518E00BAA
:102C20003518DF6EF60EE3CF34F0F70EE3CF35F054
:102C3000010E3424D96E000E3520DA6EDF38E8320A
:102C4000070B356EFC0EE124D96EFF0EE220DA6E22
:102C5000353A3546DF5035181F0B3518DF6EF60E46
:102C6000E3CFD9FFF70EE3CFDAFFDF38E832E832FF
:102C7000030B356EFB0EE124D96EFF0EE220DA6EF7
:102C8000353A3546DF5035189F0B3518DF6EF60E96
:102C9000E3CFD9FFF70EE3CFDAFFDF301F0B356E3E
:102CA000FB0EE124D96EFF0EE220DA6EDF503518FC
:102CB000E00B3518DF6EF60EE3CFD9FFF70EE3CF4A
:102CC000DAFFE150F90FE96EE250EA6EFF0EEA22F8
:102CD000EF9CDFA06DEF96F0EF8CF80EE3500C0D3B
:102CE000500EF326000EF422FE0EF3CFE3FFFF0E8C
:102CF000F4CFE3FFF90EE3CFE6FFE3CFE6FFE3CF48
:102D0000E6FFE3CFE6FFFA0EE3CFE6FFE3CFE6FF11
:102D100069EC9DF0F60EE126FF0EE2221200E6526B
:102D2000E652E652F70EE1242A6EFF0EE2202B6EE9
:102D30002AC0E6FF2BC0E6FFE8ECA5F0FD0E2AC096
:102D4000E3FFFE0E2BC0E3FFFD0EE3CF2AF0FE0EE5
:102D5000E3502A10D8B4AFEF96F0B1EF96F0E1EF60
:102D600096F0000EE66E000EE66EF50EE1242A6E79
:102D7000FF0EE2202B6E2AC0E6FF2BC0E6FF5AECC6
:102D8000A5F0F60EE350E66EF60EE124D96EFF0EC6
:102D9000E220DA6E060EDECFE6FFE82CCBEF96F0EF
:102DA000F60EE3CFE6FFE3CFE6FF84EC9CF0F40EF3
:102DB000E3CFD9FFF50EE3CFDAFF2AC0DFFF48EFFC
:102DC00097F0F60EE350E66E33ECA6F023EEDFF05C
:102DD000DF50346E356A010E3426000E352235BEC2
:102DE000FBEF96F0355009E11E0E345CD8A0FBEFE6
:102DF00096F0FDEF96F0FFEF96F059ECA6F0DFC3EA
:102E0000E8FF010FE8CFDFF323EEDFF003EEDEF0A3
:102E1000DE50EE5CD8B00FEF97F011EF97F013EFA4
:102E200097F0DFC3DEF31E0EE66E000EE66E23EEB5
:102E3000DCF0DF50346E356A010E3426000E352288
:102E400034C0E6FF35C0E6FFF9EC97F0FF0E2AC06C
:102E5000E3FFF70EE124D96EFF0EE220DA6E03EEF7
:102E6000DCF0EF50060D280EF324E96E030EF4207B
:102E7000EA6E050EDBCFEBFFE806FCE2FF0EE3CFC8
:102E800035F035C0DCF3F60EE350E66E27ECA6F025
:102E9000010E2A6EF40EE126FF0EE2221200E65227
:102EA000E652FE0EE36AFF0EE36AFE0EE3CF34F055
:102EB000FF0EE3CF35F0060E3402F3CF32F0F4CF3D
:102EC00033F03502F3503326280E3224346E030ECD
:102ED0003320356E34C0E6FF35C0E6FFF8ECA4F0D1
:102EE000FE0EE350010F2A6EFE0E2AC0E3FF2A6A8F
:102EF000FF0EE3502A202A6EFF0E2AC0E3FFFF0ECA
:102F0000E3BE90EF97F0FF0EE3500CE1FE0EE3CF2F
:102F10002AF01E0E2A5ED8A090EF97F092EF97F05D
:102F200055EF97F0FE0EE36AFF0EE36AFE0EE3CF65
:102F300034F0FF0EE3CF35F0D89034363536D890E4
:102F400034363536D89034363536C80E3424D96EFA
:102F5000020E3520DA6EDE6ADD6AFE0EE3CF34F053
:102F6000FF0EE3CF35F0D89034363536D89034366E
:102F70003536D89034363536CA0E3424326E020EC9
:102F80003520336E32C0E6FF33C0E6FFF8ECA4F024
:102F9000FE0EE350010F2A6EFE0E2AC0E3FF2A6ADE
:102FA000FF0EE3502A202A6EFF0E2AC0E3FFFF0E19
:102FB000E3BEE8EF97F0FF0EE3500CE1FE0EE3CF27
:102FC0002AF00C0E2A5ED8A0E8EF97F0EAEF97F00F
:102FD00096EF97F0000EE8CFDCF3000EE8CFDDF3BC
:102FE000000EE8CFDEF3000EE8CFDFF3E552E55246
:102FF0001200E652E652FE0EE36AFD0EE3BE05EF56
:1030000098F003EF98F00EEF98F0FC0EE36CFD0ED5
:10301000E31ED8B0E32AFE0EE36AE32AFB0EE3BE0A
:1030200016EF98F014EF98F01CEF98F0FA0EE36C9E
:10303000FB0EE31ED8B0E32AFA0EE3CF2AF0FB0E14
:10304000E3502A10D8B427EF98F029EF98F084EFD6
:1030500098F0FF0EE36AE32A3FEF98F0FA0EE35090
:10306000D890E8342A6EFA0E2AC0E3FFFB0EE35034
:10307000E8342A6EFB0E2AC0E3FFFF0EE32AFB0EA4
:10308000E3AE45EF98F047EF98F02EEF98F0FA0E88
:10309000E3CF34F0FB0EE3CF35F0FC0EE3CF32F09C
:1030A000FD0EE3CF33F03450325C35503358D8A0A6
:1030B0005CEF98F05EEF98F070EF98F0FC0EE35044
:1030C0002A6EFA0EE3502A5EFC0E2AC0E3FFFD0EC4
:1030D000E3502A6EFB0EE3502A5AFD0E2AC0E3FF8E
:1030E000D890FB0EE332FA0EE332FF0EE3502A6E65
:1030F000010E2A5EFF0E2AC0E3FFD8A482EF98F0EB
:1031000084EF98F047EF98F0FE0EE350D8B48BEFC1
:1031100098F08DEF98F093EF98F0FC0EE36CFD0EB5
:10312000E31ED8B0E32AFC0EE3CF2AF0FD0EE3CF76
:103130002BF0FA0EE126FF0EE2221200070EE12626
:10314000000EE222F80EE350D8A4A9EF98F0ABEFFE
:1031500098F0ADEF98F03AEF99F0DD0EF66EFF0EB5
:10316000F76E000EF86E0900F5CF32F00900F5CFCA
:1031700033F00900F5CF34F00900F5CF35F0F90E42
:1031800032C0E3FFFA0E33C0E3FFFB0E34C0E3FFAF
:10319000FC0E35C0E3FFE150F90FD96EE250DA6E54
:1031A000FF0EDA22DF9EFC0EE124D96EFF0EE22034
:1031B000DA6EF60EE3CF34F0F70EE3CF35F0010E02
:1031C0003424E96E000E3520EA6EEF50356EF60EAF
:1031D000E3CF32F0F70EE3CF33F0020E3224E96E84
:1031E000000E3320EA6EEF50346E050E2A6ED89032
:1031F00034362A2EF7EF98F034503510DF6EF60E85
:10320000E3CFD9FFF70EE3CFDAFFDF50356EE150A1
:10321000F90FD96EE250DA6EFF0EDA22353A3546F2
:10322000DF503518DF0B3518DF6EE150F90FD96E1E
:10323000E250DA6EFF0EDA22DF80F80EE3500C0D5A
:10324000500EF326000EF422FE0EF3CFE3FFFF0E26
:10325000F4CFE3FFF90EE3CFE6FFE3CFE6FFE3CFE2
:10326000E6FFE3CFE6FFFA0EE3CFE6FFE3CFE6FFAC
:1032700069EC9DF0F60EE126FF0EE2221200E65206
:10328000E652E652E652DD0EF66EFF0EF76E000EC7
:10329000F86E0900F5CF32F00900F5CF33F00900E0
:1032A000F5CF34F00900F5CF35F0FC0E32C0E3FF66
:1032B000FD0E33C0E3FFFE0E34C0E3FFFF0E35C04A
:1032C000E3FFE150FC0FD96EE250DA6EFF0EDA2216
:1032D000DF8EFA0EE3CF34F0FB0EE3CF35F0020EB3
:1032E0003424D96E000E3520DA6EDF50356EFF0EB5
:1032F000E124D96EFF0EE220DA6EDF503518E00BC4
:103300003518DF6EFA0EE3CF34F0FB0EE3CF35F065
:10331000030E3424D96E000E3520DA6EDF50356E80
:10332000FF0EE124D96EFF0EE220DA6E353A354603
:10333000DF5035181F0B3518DF6EFA0EE3CF34F06F
:10334000FB0EE3CF35F0010E3424D96E000E35208C
:10335000DA6EDF50356EFE0EE124D96EFF0EE220EC
:10336000DA6E353A3546DF5035189F0B3518DF6E6B
:10337000FA0EE3CFD9FFFB0EE3CFDAFFDF50356E55
:10338000FE0EE124D96EFF0EE220DA6EDF50351812
:10339000E00B3518DF6EFC0EE3CFE6FFE3CFE6FF70
:1033A000E3CFE6FFE3CFE6FF500EE66E000EE66EDB
:1033B00069EC9DF0FA0EE126FF0EE2221200050EE6
:1033C000E126000EE222DD0EF66EFF0EF76E000E15
:1033D000F86E0900F5CF32F00900F5CF33F009009F
:1033E000F5CF34F00900F5CF35F0FB0E32C0E3FF26
:1033F000FC0E33C0E3FFFD0E34C0E3FFFE0E35C00C
:10340000E3FFE150FB0FD96EE250DA6EFF0EDA22D5
:10341000F90EE3CFE9FFFA0EE3CFEAFFEF90DFAC5E
:1034200013EF9AF0EF80FD0EE124D96EFF0EE2203B
:10343000DA6EDF501F0B356EF90EE3CFD9FFFA0EAF
:10344000E3CFDAFF3546DF503518C10B3518DF6E94
:10345000FD0EE124D96EFF0EE220DA6EDF38E8328D
:10346000030B356EF90EE3CFD9FFFA0EE3CFDAFF87
:10347000353A35463546DF5035183F0B3518DF6E87
:10348000FE0EE124D96EFF0EE220DA6EDF501F0B34
:10349000356EF90EE3CF32F0FA0EE3CF33F0010EC2
:1034A0003224D96E000E3320DA6EDF503518E00B6F
:1034B0003518DF6EFE0EE124D96EFF0EE220DA6EC3
:1034C000DF38E832070B356EF90EE3CF32F0FA0E33
:1034D000E3CF33F0010E3224D96E000E3320DA6EC2
:1034E000353A3546DF5035181F0B3518DF6EF90EAB
:1034F000E126FF0EE2221200050EE126000EE22276
:10350000F50EE350020F346EF60EE3CF35F0000EE9
:103510003522FD0E34C0E3FFFE0E35C0E3FFFA0E88
:10352000E124D96EFF0EE220DA6EDF500F0B200F80
:103530000101006FF90EE3CF01F1020E346E000EAF
:10354000356EFB0E34C0E3FFFC0E35C0E3FFD8EF51
:103550009AF0F70EE3CF34F0F80EE3CF35F0FB0E20
:10356000E3503426FC0EE3503522FE0E3424D96E8F
:10357000FF0E3520DA6EFB0EE3CF34F0FC0EE3CF06
:1035800035F0000E3424E96E010E3520EA6EDFCFEF
:10359000EFFFFB0EE350010F2A6EFB0E2AC0E3FF84
:1035A0002A6AFC0EE3502A202A6EFC0E2AC0E3FF92
:1035B000FD0EE3CF34F0FE0EE3CF35F0FB0EE3CF8C
:1035C00032F0FC0EE3CF33F03450325C35503358D8
:1035D000D8A0EDEF9AF0EFEF9AF0A9EF9AF0FD0E78
:1035E000E3CFE6FFE3CFE6FF000EE66E020EE66EE7
:1035F000000EE66E010EE66E06EC9FF0FF0E2AC08E
:10360000E3FFFF0EE3CF2AF0F50EE126FF0EE222E4
:1036100012000C0EE126000EE222010E326E336A19
:10362000346A356AF40E32C0E3FFF50E33C0E3FFAF
:10363000F60E34C0E3FFF70E35C0E3FFF80EE124C9
:10364000D96EFF0EE220DA6EDF6AF90EE124D96E40
:10365000FF0EE220DA6EDF6A0F0E326E336A346AD2
:10366000356AFA0E32C0E3FFFB0E33C0E3FFFC0EF7
:1036700034C0E3FFFD0E35C0E3FFFF0EE124D96E39
:10368000FF0EE220DA6E010EDF6EFE0EE124D96E2F
:10369000FF0EE220DA6EDF6A3FECA6F0000EE66E67
:1036A000080EE66E77EC91F0FA0EE1242A6EFF0E1A
:1036B000E2202B6E2AC0E6FF2BC0E6FFF20EE124CB
:1036C0002A6EFF0EE2202B6E2AC0E6FF2BC0E6FF1B
:1036D000000EE66E73ECA3F04FEC97F01C0EE66E56
:1036E000370EE66E010EE66EFBECA5F0F28EF28C64
:1036F000000EE66E000EE66E010EE66EDA0EE66E67
:10370000260EE66E010EE66ED5EC9DF056EC90F0BE
:10371000AEECA2F086EF9BF057EF00F0E652E652D7
:10372000FF0EE36AFF0EE350080DCA0EF324D96EB4
:10373000020EF420DA6EDF50D8B4A1EF9BF0A3EFB5
:103740009BF0FDEF9BF0FF0EE350080DC80EF32435
:10375000D96E020EF420DA6E0A0EDE5E000EDD5A1D
:10376000FF0EE350080DC80EF324D96E020EF420AC
:10377000DA6EDE50DE10D8A4C0EF9BF0C2EF9BF0F3
:10378000FDEF9BF0FE0EE1242A6EFF0EE2202B6E71
:103790002AC0E6FF2BC0E6FF010EE66EFC0EE350EA
:1037A000080DCA0EF324D96E020EF420DA6E060E4E
:1037B000DECFE6FFE82CD8EF9BF08FEC96F02A04E2
:1037C000D8A4E5EF9BF0E7EF9BF0F0EF9BF0010E44
:1037D000E66EFE0EE350E66EA1ECA4F0FDEF9BF06A
:1037E000FF0EE350080DC80EF324D96E020EF4202C
:1037F000DA6E010EDE6E000EDD6EFF0EE32AFF0EA6
:10380000E3CF2AF00B0E2A6408EF9CF00AEF9CF03D
:1038100092EF9BF0E552E5521200050EE126000EF4
:10382000E222DD0EF66EFF0EF76E000EF86E090056
:10383000F5CF32F00900F5CF33F00900F5CF34F0C1
:103840000900F5CF35F0FB0E32C0E3FFFC0E33C0AC
:10385000E3FFFD0E34C0E3FFFE0E35C0E3FFF90EBB
:10386000E3CFD9FFFA0EE3CFDAFFFD0EE124E96ED4
:10387000FF0EE220EA6EEF501F0BDF6EF90EE3CF72
:1038800034F0FA0EE3CF35F0010E3424D96E000E79
:103890003520DA6EFD0EE124E96EFF0EE220EA6EBD
:1038A000EF38E832030BDF6EF90EE3CF34F0FA0E97
:1038B000E3CF35F0020E3424D96E000E3520DA6ED7
:1038C000FE0EE124E96EFF0EE220EA6EEF501F0BC0
:1038D000DF6EF90EE3CF34F0FA0EE3CF35F0030ECE
:1038E0003424D96E000E3520DA6EFE0EE124E96E26
:1038F000FF0EE220EA6EEF38E832070BDF6EF90EBA
:10390000E126FF0EE2221200E652F60EE350E66ECA
:1039100033ECA6F0FF0EE36AFF0EE350080DCA0E6B
:10392000F324D96E020EF420DA6EDF50D8A49BEF98
:103930009CF09DEF9CF0E3EF9CF0E150FD0FD96E01
:10394000E250DA6EFF0EDA22FF0EE350080DC80EC9
:10395000F324E96E020EF420EA6EDECFEEFFDDCF37
:10396000EDFFF70EE124D96EFF0EE220DA6EFF0EB6
:10397000E350080DCA0EF324E96E020EF420EA6E3D
:10398000050EDBCFEBFFE806FCE2E1C3E8FF010F29
:10399000E8CFE1F323EEE1F003EEE0F0DE50EE5C81
:1039A000D8B0D5EF9CF0D7EF9CF0D9EF9CF0E1C3F5
:1039B000E0F3F60EE350E66E27ECA6F0FF0EE3CF41
:1039C0002AF0F4EF9CF0FF0EE32AFF0EE3CF2AF07B
:1039D0000B0E2A64EEEF9CF0F0EF9CF08CEF9CF065
:1039E00056ECA6F0D9EF9CF0F60EE126FF0EE2228F
:1039F0001200180EE126000EE22220EE80F0100EDA
:103A00002A6EE80EDECFE3FFE8282A2EFBD7E70E6A
:103A1000E3502918D8A40FEF9DF011EF9DF01BEF94
:103A20009DF0E60EE3502818D8B419EF9DF01BEF77
:103A30009DF064EF9DF0E70EE3CF29F0E60EE3CFB3
:103A400028F0120E326E010E336E000E346E000E30
:103A5000356EE80E32C0E3FFE90E33C0E3FFEA0E35
:103A600034C0E3FFEB0E35C0E3FFEE0EE124D96E68
:103A7000FF0EE220DA6EDF50F00B0209DF6EE70E78
:103A8000E3CF2AF0F80E2AC0E3FFF90EE124D96E45
:103A9000FF0EE220DA6EE60EE3CFDFFFF80EE12440
:103AA0002A6EFF0EE2202B6E2AC0E6FF2BC0E6FF37
:103AB000E60EE1242A6EFF0EE2202B6E2AC0E6FFFE
:103AC0002BC0E6FF27ECA1F0E60EE126FF0EE22276
:103AD0001200E652E652E652E652060E346E000E30
:103AE000356EFC0E34C0E3FFFD0E35C0E3FFFB0E68
:103AF000E124D96EFF0EE220DA6EDF500F0B200FAB
:103B00000101006FFA0EE3CF01F1FE0EE36AFE0E33
:103B1000E350346E356A020E3424D96E010E35201E
:103B2000DA6EF60EE3CF32F0F70EE3CF33F0F80E95
:103B3000E3CF34F0F90EE3CF35F0FE0EE350080D7D
:103B4000F350E82AA9EF9DF0D89035323432333261
:103B50003232E82EA4EF9DF03250DF6EFE0EE32AE3
:103B6000FE0EE3CF2AF0030E2A64B9EF9DF0BBEFFF
:103B70009DF087EF9DF0FC0EE3CFE6FFE3CFE6FF7D
:103B8000000EE66E020EE66E000EE66E010EE66EAA
:103B900006EC9FF0FF0E2AC0E3FFFF0EE3CF2AF0F2
:103BA000F60EE126FF0EE2221200070EE126000EBD
:103BB000E222FF0EE36AE384E386F90EE1242A6E33
:103BC000FF0EE2202B6E2AC0E6FF2BC0E6FFF8ECCA
:103BD000A4F0F60EE3CFE6FFE3CFE6FFE3CFE6FF88
:103BE000F60EE1242A6EFF0EE2202B6E2AC0E6FFBD
:103BF0002BC0E6FF1FECA5F0F50EE350E66EF80EC5
:103C0000E1242A6EFF0EE2202B6E2AC0E6FF2BC0B5
:103C1000E6FF1AECA6F0F30EE3CFE6FFE3CFE6FFF4
:103C2000F70EE1242A6EFF0EE2202B6E2AC0E6FF7B
:103C30002BC0E6FF5AECA5F0FF0EE1242A6EFF0E22
:103C4000E2202B6E2AC0E6FF2BC0E6FF000EE66ED8
:103C5000F60EE124D96EFF0EE220DA6E060EDECFFC
:103C6000E6FFE82C2FEF9EF08FEC96F0F30EE126A6
:103C7000FF0EE22212000B0EE126000EE222FA0EE7
:103C8000E36AFB0EE124D96EFF0EE220DA6EDE6AF3
:103C9000DE6ADD6AF40EE350E66E33ECA6F023EE46
:103CA000DFF0DF50D8A457EF9EF059EF9EF06EEF93
:103CB0009EF0F40EE350E66E27ECA6F0FA0EE12437
:103CC000D96EFF0EE220DA6E060E2A6EF40EDECFFB
:103CD000E3FFE8282A2EFBD79CEF9EF023EEDDF0D1
:103CE000DF50060D280EF324D96E030EF420DA6E91
:103CF000060E2A6EFA0EDECFE3FFE8282A2EFBD747
:103D00001E0EE66E000EE66E23EEDDF0DF50346E22
:103D1000356A010E3426000E352234C0E6FF35C068
:103D2000E6FFF9EC97F02AC0DDF3DFC3E8FFFF0FF1
:103D3000E8CFDFF359EF9EF0FA0EE126FF0EE22204
:103D40001200E652E652E652E652040E346E000EBF
:103D5000356EFC0E34C0E3FFFD0E35C0E3FFFB0EF5
:103D6000E124D96EFF0EE220DA6EDF500F0B200F38
:103D70000101006FFA0EE3CF01F1FE0EE36AFE0EC1
:103D8000E350346E356A020E3424D96E010E3520AC
:103D9000DA6EFE0EE350080DF3CF35F0F80EE3CFE8
:103DA00032F0F90EE3CF33F0352ADAEF9EF0D890F7
:103DB00033323232352ED7EF9EF03250DF6EFE0EA8
:103DC000E32AFE0EE3CF2AF0010E2A64EAEF9EF00A
:103DD000ECEF9EF0BFEF9EF0FC0EE3CFE6FFE3CFEB
:103DE000E6FF000EE66E020EE66E000EE66E010EB7
:103DF000E66E06EC9FF0FF0E2AC0E3FFFF0EE3CF56
:103E00002AF0F80EE126FF0EE2221200E6528F9809
:103E100053EF9FF06490FF0E66CFE3FFFD0EE3CFFC
:103E2000D9FFFE0EE3CFDAFFDF50666E64A01BEF12
:103E30009FF01DEF9FF016EF9FF0FB0EE3CFD9FF31
:103E4000FC0EE3CFDAFF66CFDFFFFD0EE350010F7C
:103E50002A6EFD0E2AC0E3FF2A6AFE0EE3502A20D6
:103E60002A6EFE0E2AC0E3FFFB0EE350010F2A6EFE
:103E7000FB0E2AC0E3FF2A6AFC0EE3502A202A6EBA
:103E8000FC0E2AC0E3FFF90EE3CF2AF0010E2A5EF2
:103E9000F90E2AC0E3FFFA0EE3CF2AF0000E2A5AE9
:103EA000FA0E2AC0E3FFF90EE3CF2AF0FA0EE35030
:103EB0002A10D8A45EEF9FF060EF9FF00AEF9FF00A
:103EC0008F88000E2A6EF90EE126FF0EE222120004
:103ED000E652E652E652E652DD0EF66EFF0EF76E41
:103EE000000EF86E0900F5CF32F00900F5CF33F07F
:103EF0000900F5CF34F00900F5CF35F0FC0E32C0E3
:103F0000E3FFFD0E33C0E3FFFE0E34C0E3FFFF0E00
:103F100035C0E3FFFA0EE3CFD9FFFB0EE3CFDAFFA4
:103F2000DF301F0B356EFF0EE124D96EFF0EE2204D
:103F3000DA6EDF503518E00B3518DF6EFA0EE3CF7E
:103F4000D9FFFB0EE3CFDAFFE150FC0FE96EE25040
:103F5000EA6EFF0EEA22EF9ADFA0B0EF9FF0EF8A41
:103F6000FC0EE3CFE6FFE3CFE6FFE3CFE6FFE3CFD0
:103F7000E6FF400EE66E000EE66E69EC9DF0FA0E6E
:103F8000E126FF0EE222120063BAC9EF9FF0CBEFE9
:103F90009FF01DEFA0F0FF0EE350040D010EF3267D
:103FA000000EF422E90EF324F66EFF0EF420F76EF5
:103FB000F86A000EF8220800F5CF64FFFF0EE35008
:103FC000040DE90EF324F66EFF0EF420F76EF86A86
:103FD000000EF8220800F5CF63FF626AFF0EE3507F
:103FE000040D020EF326000EF422E90EF324F66E01
:103FF000FF0EF420F76EF86A000EF8220800F5CFE5
:1040000065FFFF0EE350040D030EF326000EF422AD
:10401000E90EF324F66EFF0EF420F76EF86A000E38
:10402000F8220800F5CF35F0353A3546354695503B
:104030003518BF0B3518956E638AE5521200180EBD
:10404000E126000EE22220EE60F0100E2A6EE80E4D
:10405000DECFE3FFE8282A2EFBD7E70EE350261831
:10406000D8B435EFA0F037EFA0F074EFA0F0E70E72
:10407000E3CF26F0190E326E010E336E000E346E51
:10408000000E356EE80E32C0E3FFE90E33C0E3FFE9
:10409000EA0E34C0E3FFEB0E35C0E3FFEE0EE12481
:1040A000D96EFF0EE220DA6EDF50F00B0109DF6EF1
:1040B000E70EE3CF2AF0F80E2AC0E3FFF80EE12462
:1040C0002A6EFF0EE2202B6E2AC0E6FF2BC0E6FF11
:1040D000E60EE1242A6EFF0EE2202B6E2AC0E6FFD8
:1040E0002BC0E6FF27ECA1F0E70EE126FF0EE2224F
:1040F0001200180EE126000EE22220EE70F0100EE3
:104100002A6EE80EDECFE3FFE8282A2EFBD7E70E63
:10411000E3502718D8B48FEFA0F091EFA0F0CBEFC9
:10412000A0F0E70EE3CF27F0190E326E336A346A3F
:10413000356AE80E32C0E3FFE90E33C0E3FFEA0E52
:1041400034C0E3FFEB0E35C0E3FFEE0EE124D96E81
:10415000FF0EE220DA6EDF50F00B0109DF6EE70E92
:10416000E3CF2AF0F80E2AC0E3FFF80EE1242A6E0E
:10417000FF0EE2202B6E2AC0E6FF2BC0E6FFE60E04
:10418000E1242A6EFF0EE2202B6E2AC0E6FF2BC030
:10419000E6FF27ECA1F0E70EE126FF0EE222120077
:1041A000080EE126000EE222F70EE3500C0D510E30
:1041B000F326000EF422FD0EF3CFE3FFFE0EF4CF44
:1041C000E3FFF80EE36AF90EE36AFA0EE36AFB0E08
:1041D000E36AF90EE124D96EFF0EE220DA6EDF8089
:1041E000F60EE350D8B4F7EFA0F0F9EFA0F000EF2F
:1041F000A1F0F90EE124D96EFF0EE220DA6EDF8223
:10420000F90EE124D96EFF0EE220DA6EDF50E66E81
:10421000FC0EE3CFE6FFE3CFE6FFCDECA4F0FF0E0C
:104220002AC0E3FFFF0EE350D8B419EFA1F01BEF53
:10423000A1F01FEFA1F0FF0E2A6E22EFA1F0FF0EFA
:10424000E3CF2AF0F60EE126FF0EE2221200E6523C
:10425000FD0EE3CF34F0FE0EE3CF35F0080E34242C
:10426000D96E000E3520DA6E010EDE6E000EDE6EA7
:10427000000EDE6E000EDD6EFF0EE1242A6EFF0ED4
:10428000E2202B6E2AC0E6FF2BC0E6FF010EE66E91
:10429000CEECA1F0FF0EE3A050EFA1F052EFA1F0A1
:1042A00077EFA1F0010EE66EFC0EE3CF34F0FD0EC9
:1042B000E3CF35F0060E3424D96E000E3520DA6EC9
:1042C000DF500F0B356E35C0E6FF000EE66EE66E72
:1042D000E66EF60EE3CFE6FFE3CFE6FFF60EE3CFA2
:1042E000E6FFE3CFE6FF010EE66E00EC80F0FB0E8A
:1042F000E126FF0EE2221200070EE126000EE22266
:10430000F80EE350D8A487EFA1F089EFA1F08BEF6E
:10431000A1F0C9EFA1F0F90EE36AFA0EE36AFB0E11
:10432000E36AFC0EE36AF80EE3500C0D540EF3261C
:10433000000EF422FD0EF3CFE3FFFE0EF4CFE3FFF9
:10434000F90EE1242A6EFF0EE2202B6E2AC0E6FF52
:104350002BC0E6FFFB0EE3CFE6FFE3CFE6FF40EC2A
:10436000A4F0FF0E2AC0E3FFFF0EE350D8B4BBEF6A
:10437000A1F0BDEFA1F0BFEFA1F0C9EFA1F0F60EE3
:10438000E3CFD9FFF70EE3CFDAFFF90EE3500F0BBF
:10439000DF6EF60EE126FF0EE2221200070EE12686
:1043A000000EE222F90EE36AFA0EE36AFB0EE36AFC
:1043B000FC0EE36AF80EE3500C0D540EF326000ECB
:1043C000F422FD0EF3CFE3FFFE0EF4CFE3FFF90E70
:1043D000E1242A6EFF0EE2202B6E2AC0E6FF2BC0DE
:1043E000E6FFFB0EE3CFE6FFE3CFE6FF40ECA4F0F1
:1043F000FF0E2AC0E3FFFF0EE350D8B402EFA2F095
:1044000004EFA2F008EFA2F0FF0E2A6E15EFA2F063
:10441000F60EE3CFD9FFF70EE3CFDAFFF90EE35044
:10442000170BDF6EFF0EE3CF2AF0F60EE126FF0E2C
:10443000E2221200E652E652E652FA0EE350D8B4F7
:1044400024EFA2F026EFA2F030EFA2F0E150FF0F30
:10445000D96EE250DA6EFF0EDA22DF8E38EFA2F06C
:10446000E150FF0FD96EE250DA6EFF0EDA22DF9EC6
:10447000FB0EE3CF35F0E150FF0FD96EE250DA6E5C
:10448000FF0EDA22DF503518E00B3518DF6EFC0E18
:10449000E3CF35F0D00E3524326E336A010E33226D
:1044A000FD0E32C0E3FFFE0E33C0E3FFFF0EE3500C
:1044B000E66EFC0EE3CFE6FFE3CFE6FFCDECA4F023
:1044C000FA0EE126FF0EE2221200E652E652E65212
:1044D000E652FB0EE3CF35F0D00E3524326E336A50
:1044E000010E3322FC0E32C0E3FFFD0E33C0E3FFAA
:1044F000FF0EE1242A6EFF0EE2202B6E2AC0E6FF9B
:104500002BC0E6FFFA0EE3CFE6FFE3CFE6FF40EC79
:10451000A4F0FE0E2AC0E3FFFE0EE350D8B493EFE2
:10452000A2F095EFA2F097EFA2F0A9EFA2F0E15070
:10453000FF0FD96EE250DA6EFF0EDA22DF9EFF0E19
:10454000E350E66EFB0EE3CFE6FFE3CFE6FFCDECF4
:10455000A4F0FB0EE126FF0EE2221200060EE12679
:10456000000EE222000EE66E3BEC9EF0FA0EE12415
:10457000D96EFF0EE220DA6E060E2A6EDD50E5528D
:10458000E750DF6E2A2EFAD7FB0EE124D96EFF0E1C
:10459000E220DA6EDE50DE10DE10D8B4D2EFA2F0E8
:1045A000D4EFA2F0F1EFA2F0FA0EE1242A6EFF0E92
:1045B000E2202B6E2AC0E6FF2BC0E6FFF90EE124B5
:1045C000D96EFF0EE220DA6E02D8F1EFA2F00500FC
:1045D000FA6EDE50FD6EDE50FE6EDE50FF6EFA505B
:1045E0001200FA0EE126FF0EE2221200E652E65217
:1045F000FE0EE36AFE0EE1242A6EFF0EE2202B6E11
:104600002AC0E6FF2BC0E6FF030EE66E000EE66E44
:1046100040ECA4F0FF0E2AC0E3FFFF0EE350D8B435
:1046200014EFA3F016EFA3F018EFA3F035EFA3F00B
:10463000FE0EE3CF2AF0F80E2A16FE0E2AC0E3FF84
:10464000FD0EE3CF35F0E150FE0FD96EE250DA6E89
:10465000FF0EDA223550DF12FE0EE350E66E030E37
:10466000E66E000EE66ECDECA4F0E552E552E552A2
:104670001200080EE126000EE222F80EE36AF90E9F
:10468000E36AFA0EE36AFB0EE36AF70EE3500C0DE1
:10469000510EF326000EF422FD0EF3CFE3FFFE0EC3
:1046A000F4CFE3FFF90EE124D96EFF0EE220DA6EBB
:1046B000DF80F90EE124D96EFF0EE220DA6EDF50C2
:1046C000E66EFC0EE3CFE6FFE3CFE6FFCDECA4F011
:1046D000FF0E2AC0E3FFFF0EE3CF2AF0F70EE1261C
:1046E000FF0EE2221200FF0EE350E66E65ECA2F030
:1046F000FD0EE3CFE6FFE3CFE6FFFD0EE350E66EEF
:104700001AEC87F0FD0EE3CF34F0FE0EE3CF35F068
:10471000050E3424D96E000E3520DA6EDF50E66EB9
:10472000FA0EE3CFE6FFE3CFE6FFFC0EE350E66EC2
:10473000BFEC88F0010EE66E020EE66EFD0EE35051
:10474000E66E1AECA2F0FB0EE126FF0EE22212004A
:10475000BC0EF66E4C0EF76E010EF86E0900F5CF2A
:104760005DF00900F5CF5EF00900F5CF5FF002EED5
:10477000C8F021EE1AF0EE6ADD50D950FCE1DA50B3
:10478000FAE102EE00F0C80EEE6AE806FDE101EE85
:1047900000F0C80EEE6AE806FDE100EE60F0400EA3
:1047A000EE6AE806FDE100EE01F0290EEE6AE80689
:1047B000FDE1000109EF9BF0E652FF0EE1242A6EB5
:1047C000FF0EE2202B6E2AC0E6FF2BC0E6FF020E92
:1047D000E66E7CECA1F0FF0EE3A0F1EFA3F0F3EFA7
:1047E000A3F007EFA4F0080EE66EFA0EE3CFE6FFA3
:1047F000E3CFE6FFFA0EE3CFE6FFE3CFE6FF020EDC
:10480000E66EA6EC83F0000E2A6E09EFA4F0FF0E10
:104810002A6EFB0EE126FF0EE2221200E652E6525D
:10482000FE0EE36AFF0EE36AFB0EE3CF34F0FC0EEC
:10483000E3CF35F01F0E3414326EFF0E3514336E95
:10484000FE0EE3CF2AF032502A12FE0E2AC0E3FFFA
:10485000FF0EE3CF2AF033502A12FF0E2AC0E3FFE7
:10486000FE0EE3CFE6FFE3CFE6FF1E0EE66E000E80
:10487000E66EA1EC9EF0FB0EE126FF0EE222120096
:10488000E652FE0EE124D96EFF0EE220DA6EDF5012
:104890000F0B300F0101006FFD0EE3CF01F1026B32
:1048A000030EE66E000EE66E000EE66E020EE66E7B
:1048B000000EE66E010EE66E06EC9FF0FF0E2AC0BB
:1048C000E3FFFB0EE3CFD9FFFC0EE3CFDAFF02C21A
:1048D000DFFFFF0EE3CF2AF0FB0EE126FF0EE22200
:1048E0001200E652E652FE0EE36AFE0EE1242A6E44
:1048F000FF0EE2202B6E2AC0E6FF2BC0E6FF160E4D
:10490000E66E000EE66E40ECA4F0FF0E2AC0E3FF58
:10491000FF0EE350D8B48FEFA4F091EFA4F093EF23
:10492000A4F09EEFA4F0FE0EE380FE0EE350E66ED0
:10493000160EE66E000EE66ECDECA4F0E552E552E2
:104940001200FE0EE350E66E33ECA6F0FF0EE350CD
:10495000080DC80EF324D96E020EF420DA6EDE6A5A
:10496000DD6AFF0EE350080DCA0EF324346E020E0A
:10497000F420356E34C0E6FF35C0E6FFF8ECA4F055
:10498000E1C3E8FFFF0FE8CFE1F3FE0EE350E66E70
:1049900027ECA6F0E552E5521200E652FE0EE124A5
:1049A000D96EFF0EE220DA6EDF500F0B200F0101EF
:1049B000006FFD0EE3CF01F1FC0EE3CF02F1030E19
:1049C000E66E000EE66E000EE66E020EE66E000E5D
:1049D000E66E010EE66E06EC9FF0FF0E2AC0E3FFC6
:1049E000FF0EE3CF2AF0E552E552E552E552120000
:1049F000FE0EE3CFD9FFFF0EE3CFDAFFDF6AFE0E34
:104A0000E3CF34F0FF0EE3CF35F0040E3424D96E3B
:104A1000000E3520DA6EDE6ADD6AFE0EE3CF34F07A
:104A2000FF0EE3CF35F0010E3424D96E000E352091
:104A3000DA6EDE6ADE6ADD6AE552E5521200E150A6
:104A4000FB0FD96EE250DA6EFF0EDA22FE0EE3CFD4
:104A500034F0FF0EE3CF35F0010E3424E96E000E82
:104A60003520EA6EDECFEEFFDECFEEFFDECFEEFFCB
:104A7000FB0EE126FF0EE2221200D59CFD0ED76E42
:104A80009D0ED66ED650D7CF2AF02B6A2AC02BF0B7
:104A90002A6A2A10226E2B50236EF294F28AC00EDC
:104AA000E66E4C0EE66E010EE66EFBECA5F0970E80
:104AB000D56E1200E150FC0FD96EE250DA6EFF0E97
:104AC000DA22FE0EE3CF34F0FF0EE3CF35F0040E12
:104AD0003424E96E000E3520EA6EDECFEEFFDDCF26
:104AE000EDFFE552E552E552E5521200010E166E59
:104AF0005A505B105C10D8B480EFA5F082EFA5F09F
:104B00008FEFA5F002D88FEFA5F00500FA6E5A508E
:104B1000FD6E5B50FE6E5C50FF6EFA50120012008C
:104B20008D6A916A8C6A896A8E6A8A6A8F6A8B6AD0
:104B3000906A966897683F0E926E98689368996835
:104B40009468AF0E956E9A68F00EC1161200F2943A
:104B500023C0D7FF22C0D6FF010E176E204A212A9C
:104B600020502110D8B4B7EFA5F0B9EFA5F0BDEFF4
:104B7000A5F076ECA5F0206A216A12000101006B15
:104B8000016B000EE66EC4EC9FF0020EE66E000EA6
:104B9000E66E000EE66E020EE66E000EE66E010E8A
:104BA000E66E06EC9FF01200FC0EE3CFE6FFE3CFCB
:104BB000E6FFE3CFE6FFE3CFE6FF100EE66E000E62
:104BC000E66E69EC9DF0E552E552E552E5521200C1
:104BD000FE0EE3CF34F0FF0EE3CF35F0040E3424A5
:104BE000D96E000E3520DA6EDECF2AF0DDCF2BF045
:104BF000E552E5521200E150FD0FD96EE250DA6E37
:104C0000FF0EDA22DECF5AF0DECF5BF0DDCF5CF0B4
:104C1000E552E552E5521200FE0EE3CFE6FFE3CF88
:104C2000E6FF140EE66E000EE66EA1EC9EF0E55275
:104C3000E5521200FE0EE3CFD9FFFF0EE3CFDAFFFD
:104C4000FD0EE3CFDFFFE552E552E5521200FF0E05
:104C5000E350D8A42EEFA6F030EFA6F031EFA6F087
:104C6000F28EE5521200FF0EE350D8A43AEFA6F000
:104C70003CEFA6F03DEFA6F0F29EE55212005CEC90
:104C8000A6F04AECA6F090ECA5F052ECA6F03DECB4
:104C9000A5F01200400E646E010E636E656A959C6D
:104CA000639A1200D36A500E9B6E120056EFA6F064
:0F4CB000120059EFA6F01200D09E120001010A67
:024CC0001200E0
:06FFF800A0F4C5FFF8F7BC
:00000001FF
