:0400000057EF00F0C6
:10000800FACF40F0FBCF41F0E9CF42F0EACF43F01E
:10001800E1CF44F0E2CF45F0D9CF46F0DACF47F050
:10002800F3CF48F0F4CF49F001C04AF002C04BF0DA
:1000380009C04CF00AC04DF00BC04EF00CC04FF098
:1000480019EE31F0F2AA2BEF00F02DEF00F036EFA9
:1000580000F0F2A432EF00F034EF00F036EF00F0D9
:100068000FECA4F04FC00CF04EC00BF04DC00AF0DE
:100078004CC009F04BC002F04AC001F049C0F4FF7F
:1000880048C0F3FF47C0DAFF46C0D9FF45C0E2FFCA
:1000980044C0E1FF43C0EAFF42C0E9FF41C0FBFFA3
:0E00A80040C0FAFF110013EEE2F078EFA3F073
:10FF8C0000600798040F0F3E0003030E00001002E0
:10FF9C000000000000000000004000404000000095
:10FFAC000000000000000000000000000000000045
:10FFBC000000000000000020000000000000000015
:10FFCC000000040000000000000000000000000021
:10FFDC000000046000000000000000000001400070
:10FFEC000020202020202020202020202020202025
:03FFFC00200000E2
:020000040001F9
:10000000720EE126000EE2228D0EE3500C0D500E12
:10001000F326000EF422EF0EF3CFE3FFF00EF4CF41
:10002000E3FFF10EE36AF20EE36A030EE66E000EE2
:10003000E66EDC0EE124016EFF0EE220026E01C0CE
:10004000E6FF02C0E6FFEB0EE3CFE6FFE3CFE6FFFD
:1000500059EC8AF0FD0E01C0E3FFFD0EE350D8B469
:1000600034EF80F036EF80F03AEF80F0FF0E016E53
:10007000A1EF83F0DE0EE3CF09F0DF0EE3CF0AF04D
:10008000E00EE3CF0BF0E10EE3CF0CF0EA0E09C077
:10009000E3FFEB0E0AC0E3FFEC0E0BC0E3FFED0E37
:1000A0000CC0E3FFE150EA0FD96EE250DA6EFF0EAA
:1000B000DA22DFBE5EEF80F060EF80F064EF80F068
:1000C000FE0E016EA1EF83F08B0EE3CF0BF08C0ED2
:1000D000E3CF0CF0060E0B24D96E000E0C20DA6E66
:1000E000DF500F0BE66E39EC90F0F70E01C0E3FF26
:1000F000F80E02C0E3FFF90E03C0E3FFFA0E04C0DE
:10010000E3FFE150F70FD96EE250DA6EFF0EDA220C
:10011000850EE350DE5C860EE350DE58870EE3501A
:10012000DE58880EE350DE58D8B099EF80F09BEF90
:1001300080F09FEF80F0FD0E016EA1EF83F0E60EE0
:10014000E124D96EFF0EE220DA6EDECF09F0DECFB9
:100150000AF0DECF0BF0DECF0CF0F30E09C0E3FFA8
:10016000F40E0AC0E3FFF50E0BC0E3FFF60E0CC061
:10017000E3FFF30EE3CF09F0F40EE3CF0AF0F50E40
:10018000E3CF0BF0F60EE3CF0CF0EF0E09C0E3FF68
:10019000F00E0AC0E3FFF10E0BC0E3FFF20E0CC03D
:1001A000E3FFE150EF0FD96EE250DA6EFF0EDA2274
:1001B000000EDE26040EDE22000EDE22000EDE22FF
:1001C0008B0EE3CF0BF08C0EE3CF0CF0060E0B245E
:1001D000D96E000E0C20DA6EDFB8F1EF80F0F3EF8D
:1001E00080F075EF81F08B0EE3CFD9FF8C0EE3CF5B
:1001F000DAFFDF500C6E920E0CC0E3FF930EE12489
:10020000D96EFF0EE220DA6E8B0EE3CFE9FF8C0E83
:10021000E3CFEAFFEECF09F0EECF0AF0EECF0BF01E
:10022000EECF0CF00AC009F00BC00AF00CC00BF0C6
:100230000C6A0950DF6E940EE124D96EFF0EE220A5
:10024000DA6E8B0EE3CFE9FF8C0EE3CFEAFFEECF41
:1002500009F0EECF0AF0EECF0BF0EECF0CF0110E5E
:1002600037EF81F0D8900C320B320A320932E82E87
:1002700032EF81F00950DF6E950EE124D96EFF0E4A
:10028000E220DA6E8B0EE3CF0BF08C0EE3CF0CF096
:10029000040E0B24E96E000E0C20EA6EEF500C6E7B
:1002A000050E016ED8900C36012E52EF81F08B0EA8
:1002B000E3CFE9FF8C0EE3CFEAFFEECF05F0EECF00
:1002C00006F0EECF07F0EECF08F0190E6DEF81F0DB
:1002D000D8900832073206320532E82E68EF81F0F6
:1002E00005500C10DF6E24EF82F08B0EE3CFD9FFA8
:1002F0008C0EE3CFDAFFDECF09F0DECF0AF0DECFDF
:100300000BF0DECF0CF0130E8BEF81F0D8900C3297
:100310000B320A320932E82E86EF81F0FF0E091403
:10032000056E070E0A14066E000E0B14076E000E03
:100330000C14086E8B0EE3CFD9FF8C0EE3CFDAFFDF
:10034000FF0EDE14096EFF0EDE140A6E030EDE14BD
:100350000B6E000EDE140C6E0B0ED89009360A36AA
:100360000B360C36E82EADEF81F005500910016E0A
:1003700006500A10026E07500B10036E08500C1046
:10038000046E8E0E01C0E3FF8F0E02C0E3FF900EDD
:1003900003C0E3FF910E04C0E3FFE1508E0FD96E5E
:1003A000E250DA6EFF0EDA22FF0EDE16FF0EDE16C8
:1003B000FF0EDE161F0EDE168E0EE3CF01F0920E3C
:1003C00001C0E3FF8F0EE124D96EFF0EE220DA6E4A
:1003D000930EE124E96EFF0EE220EA6EDFCFEFFF1D
:1003E000900EE124D96EFF0EE220DA6E940EE12425
:1003F000E96EFF0EE220EA6EDFCFEFFF950EE124FB
:10040000D96EFF0EE220DA6E910EE124E96EFF0E46
:10041000E220EA6EEF500C6E8B0EE3CF09F08C0EEB
:10042000E3CF0AF0040E0924E96E000E0A20EA6EFA
:10043000EF500B6E050E016ED8900B36012E1CEF9F
:1004400082F00B500C10DF6E8B0EE3CF0BF08C0E96
:10045000E3CF0CF0060E0B24D96E000E0C20DA6EE2
:10046000960EE124E96EFF0EE220EA6EDFCFEFFF89
:10047000970EE124D96EFF0EE220DA6E8B0EE3CFE9
:100480000BF08C0EE3CF0CF0070E0B24E96E000E80
:100490000C20EA6EEF500C6E8B0EE3CF09F08C0E41
:1004A000E3CF0AF0080E0924E96E000E0A20EA6E76
:1004B000EF500B6ED8900B340C10DF6E980EE124C9
:1004C000D96EFF0EE220DA6E8B0EE3CF0BF08C0EAE
:1004D000E3CF0CF0080E0B24E96E000E0C20EA6E40
:1004E000EECF09F0EECF0AF0EECF0BF0EECF0CF02E
:1004F000080E80EF82F0D8900C320B320A320932AB
:10050000E82E7BEF82F00950DF6E990EE124D96E60
:10051000FF0EE220DA6E8B0EE3CF0BF08C0EE3CFF2
:100520000CF0080E0B24E96E000E0C20EA6EEECFE4
:1005300009F0EECF0AF0EECF0BF0EECF0CF0100E7C
:10054000A7EF82F0D8900C320B320A320932E82E33
:10055000A2EF82F00950DF6EFE0EE36AD7EF82F061
:10056000FE0EE3CF0CF0890EE3CF09F08A0EE3CF45
:100570000AF00C500924D96E000E0A20DA6EFE0E25
:10058000E3500B6E0C6A080E0B26000E0C22920E26
:10059000E124096EFF0EE2200A6E0B500924E96E79
:1005A0000C500A20EA6EDFCFEFFFFE0EE32AFE0EAC
:1005B000E3CF0CF00CC005F0066A076A086A850EE6
:1005C000E350055C860EE3500658870EE35007584B
:1005D000880EE3500858D8A0F0EF82F0F2EF82F0D6
:1005E000B0EF82F0FB0EE36AFC0EE36A850EE3CF08
:1005F0000CF0030E0C16D8B400EF83F002EF83F07A
:1006000051EF83F0850EE3CF0BF0860EE3CF0CF0B5
:10061000030E0B16000E0C160B500408096E0C503E
:10062000D8A0E82A00080A6EFB0E09C0E3FFFC0E02
:100630000AC0E3FF080E0C6E850EE3500C240B6E0F
:10064000FE0E0BC0E3FFFF0EE36A40EF83F0920E55
:10065000E1240B6EFF0EE2200C6EFE0EE3500B2623
:10066000000E0C22FF0EE3500B26000E0C22080E8B
:100670000B24D96E000E0C20DA6EDF6AFF0EE32A1F
:10068000FF0EE3500B6E0C6AFB0EE3500B5CFC0E8E
:10069000E3500C58D8A04FEF83F051EF83F027EFD1
:1006A00083F0850EE3CF0BF0860EE3CF0CF0FB0E4C
:1006B000E3500B26FC0EE3500C22080E0B26000E16
:1006C0000C220BC0E6FF0CC0E6FF900EE124016E89
:1006D000FF0EE220026E01C0E6FF02C0E6FFEB0E55
:1006E000E3CFE6FFE3CFE6FF1FEC99F0FD0E01C07C
:1006F000E3FFFD0EE350D8B480EF83F082EF83F088
:1007000086EF83F0FC0E016EA1EF83F0840EE350C0
:10071000E66E8C0EE350E66E5DEC9FF0FD0E01C0C0
:10072000E3FFFD0EE350D8B498EF83F09AEF83F027
:100730009EEF83F0FB0E016EA1EF83F0FD0EE3CF81
:1007400001F0840EE126FF0EE22212006E0EE12679
:10075000000EE222FD0EE36AFF0EE36A910EE35003
:100760000C0D500EF326000EF422FB0EF3CFE3FF28
:10077000FC0EF4CFE3FF030EE66E000EE66EE00E15
:10078000E124016EFF0EE220026E01C0E6FF02C00E
:10079000E6FFF70EE3CFE6FFE3CFE6FF59EC8AF082
:1007A000FF0E01C0E3FFFF0EE350D8B4DAEF83F091
:1007B000DCEF83F0DEEF83F015EF87F0E20EE3CF9E
:1007C00009F0E30EE3CF0AF0E40EE3CF0BF0E50E01
:1007D000E3CF0CF0EE0E09C0E3FFEF0E0AC0E3FF1B
:1007E000F00E0BC0E3FFF10E0CC0E3FFE150EE0F83
:1007F000D96EE250DA6EFF0EDA22DFAE02EF84F03D
:1008000004EF84F006EF84F015EF87F0EA0EE124A0
:10081000D96EFF0EE220DA6EDECF09F0DECF0AF0ED
:10082000DECF0BF0DECF0CF0F70E09C0E3FFF80EC1
:100830000AC0E3FFF90E0BC0E3FFFA0E0CC0E3FFA2
:10084000F70EE3CF01F0FB0E01C0E3FFF80EE3CF9C
:1008500001F0FC0E01C0E3FFE150FB0FD96EE25046
:10086000DA6EFF0EDA22000EDE26040EDD22080EFE
:100870000C6E8C0EE3500C240B6EFE0E0BC0E3FFCF
:10088000E150EE0FD96EE250DA6EFF0EDA22DFAAE7
:100890004CEF84F04EEF84F056EF84F0FE0EE3CF81
:1008A00001F0040E0126FE0E01C0E3FFFE0EE3CFB1
:1008B0000CF0030E0C16D8B460EF84F062EF84F0F5
:1008C00072EF84F0FE0EE3CF0CF0030E0C16FE0E5A
:1008D000E3CF0BF00C500B5C0C6E040E0C26FE0EDE
:1008E0000CC0E3FFFE0EE3CF01F04C0E01647BEF82
:1008F00084F07DEF84F082EF84F04C0E0C6EFE0EDF
:100900000CC0E3FFFE0EE350E66E000EE66E940EA2
:10091000E124016EFF0EE220026E01C0E6FF02C07C
:10092000E6FFF70EE3CFE6FFE3CFE6FFE6EC92F05B
:10093000FF0E01C0E3FFFF0EE350D8B4A2EF84F036
:10094000A4EF84F0A6EF84F015EF87F09A0EE1246F
:10095000D96EFF0EE220DA6E8F0EE3CF0BF0900E11
:10096000E3CF0CF0060E0B24E96E000E0C20EA6EAD
:10097000DFCFEFFF8F0EE3CF0BF0900EE3CF0CF045
:10098000060E0B24D96E000E0C20DA6EDFB8CBEF0A
:1009900084F0CDEF84F038EF85F0990EE124D96E24
:1009A000FF0EE220DA6EDF500C6E1F0E0C160CC02C
:1009B00005F0066A076A086A05C008F0076A066A51
:1009C000056A970EE124D96EFF0EE220DA6EDF5041
:1009D0000C6E0CC001F0026A036A046A03C004F0E2
:1009E00002C003F001C002F0016A960EE350096EE6
:1009F0000A6A0B6A0C6A0150091202500A1203506B
:100A00000B1204500C12980EE124D96EFF0EE22056
:100A1000DA6EDF50016E026A036A046A02C004F0F3
:100A200001C003F0026A016A0150091202500A1261
:100A300003500B1204500C1205500910016E0650A1
:100A40000A10026E07500B10036E08500C10046E53
:100A50008F0EE3CFD9FF900EE3CFDAFF01C0DEFFA8
:100A600002C0DEFF03C0DEFF04C0DEFFF8EF85F04A
:100A7000990EE124D96EFF0EE220DA6EDF500C6E83
:100A80001F0E0C160CC005F0066A076A086A05C03E
:100A900008F0076A066A056A970EE124D96EFF0E10
:100AA000E220DA6EDF500C6E0CC001F0026A036ABD
:100AB000046A03C004F002C003F001C002F0016A3E
:100AC000960EE350096E0A6A0B6A0C6A015009120D
:100AD00002500A1203500B1204500C12980EE1241B
:100AE000D96EFF0EE220DA6EDF50016E026A036AF1
:100AF000046A02C004F001C003F0026A016A0150F6
:100B0000091202500A1203500B1204500C12055025
:100B10000910016E06500A10026E07500B10036E8A
:100B200008500C10046E920E01C0E3FF930E02C039
:100B3000E3FF940E03C0E3FF950E04C0E3FF920EA3
:100B4000E3CF09F0930EE3CF0AF0940EE3CF0BF05E
:100B5000950EE3CF0CF00C0EB3EF85F0D8900C326D
:100B60000B320A320932E82EAEEF85F0FF0E09147F
:100B7000056EFF0E0A14066E030E0B14076E000EB0
:100B80000C14086EE150920FD96EE250DA6EFF0E2F
:100B9000DA22FF0EDE14096E070EDE140A6E000E56
:100BA000DE140B6E000EDE140C6E120ED890093699
:100BB0000A360B360C36E82ED6EF85F005500910B4
:100BC000016E06500A10026E07500B10036E08509B
:100BD0000C10046E8F0EE3CFD9FF900EE3CFDAFF37
:100BE00001C0DEFF02C0DEFF03C0DEFF04C0DEFF87
:100BF0008F0EE3CF0BF0900EE3CF0CF0070E0B241B
:100C0000D96E000E0C20DA6E9B0EE124E96EFF0E09
:100C1000E220EA6EEF50010BDF6E8F0EE3CF0BF098
:100C2000900EE3CF0CF0080E0B24D96E000E0C20B2
:100C3000DA6E9B0EE124E96EFF0EE220EA6EEF50C1
:100C40000C6ED8900C32D8900C32D8900C30DF6EED
:100C5000E150EE0FD96EE250DA6EFF0EDA22DFAA13
:100C600034EF86F036EF86F0C4EF86F09E0EE12476
:100C7000D96EFF0EE220DA6EDF500C6EF30E0CC060
:100C8000E3FF9F0EE124D96EFF0EE220DA6EF40E30
:100C9000E124E96EFF0EE220EA6EDFCFEFFFA00E47
:100CA000E124D96EFF0EE220DA6EF50EE124E96E42
:100CB000FF0EE220EA6EDFCFEFFFA10EE124D96E36
:100CC000FF0EE220DA6EF60EE124E96EFF0EE2205E
:100CD000EA6EDFCFEFFFE150F30FD96EE250DA6E2C
:100CE000FF0EDA228F0EE3CF0BF0900EE3CF0CF065
:100CF000090E0B24E96E000E0C20EA6EDECFEEFF2B
:100D0000DECFEEFFDECFEEFFDECFEEFFFD0EE36ABD
:100D1000B1EF86F0FD0EE3500B6E0C6A0C0E0B2645
:100D2000000E0C22960EE124096EFF0EE2200A6EE0
:100D30000B500924D96E0C500A20DA6EFD0EE3CF59
:100D40000CF08D0EE3CF09F08E0EE3CF0AF00C50BD
:100D50000924E96E000E0A20EA6EDFCFEFFFFD0ED8
:100D6000E32AE150FD0FD96EE250DA6EFF0EDA226F
:100D70008C0EE350DE5CD8A0C0EF86F0C2EF86F0A8
:100D80008AEF86F010EF87F08F0EE3CF0BF0900E16
:100D9000E3CF0CF0090E0B24D96E000E0C20DA6E96
:100DA000DE6ADE6ADE6ADD6AFD0EE36AFFEF86F068
:100DB000FD0EE3500B6E0C6A080E0B26000E0C2283
:100DC000960EE124096EFF0EE2200A6E0B500924F4
:100DD000D96E0C500A20DA6EFD0EE3CF0CF08D0EAA
:100DE000E3CF09F08E0EE3CF0AF00C500924E96E30
:100DF000000E0A20EA6EDFCFEFFFFD0EE32AE1507E
:100E0000FD0FD96EE250DA6EFF0EDA228C0EE3503F
:100E1000DE5CD8A00EEF87F010EF87F0D8EF86F0F9
:100E2000910EE350E66EC6ECA1F08C0EE126FF0EAB
:100E3000E22212000C0EE126000EE222F80EE36A16
:100E4000F90EE36AFA0EE36AFB0EE36AF10EE3CFF2
:100E50000BF0F20EE3CF0CF0050E0B24D96E000E52
:100E60000C20DA6EDF50D8A438EF87F03AEF87F025
:100E7000D2EF87F0F10EE3CFD9FFF20EE3CFDAFF26
:100E8000DF500C6EF80E0CC0E3FFF90EE124D96EB2
:100E9000FF0EE220DA6EF10EE3CFE9FFF20EE3CFB0
:100EA000EAFFEECF09F0EECF0AF0EECF0BF0EECF77
:100EB0000CF00AC009F00BC00AF00CC00BF00C6A71
:100EC0000950DF6EFA0EE124D96EFF0EE220DA6ED1
:100ED000F10EE3CFE9FFF20EE3CFEAFFEECF09F028
:100EE000EECF0AF0EECF0BF0EECF0CF0110E7EEF4E
:100EF00087F0D8900C320B320A320932E82E79EFA3
:100F000087F00950DF6EFB0EE124D96EFF0EE22060
:100F1000DA6EF10EE3CF0BF0F20EE3CF0CF0050E1C
:100F20000B24E96E000E0C20EA6EEF500C6E060EDC
:100F3000016ED8900C36012E99EF87F0F10EE3CFB9
:100F400009F0F20EE3CF0AF0040E0924E96E000E58
:100F50000A20EA6EEF500B6E050E016ED8900B362C
:100F6000012EAEEF87F0F10EE3CFE9FFF20EE3CFF3
:100F7000EAFFEECF05F0EECF06F0EECF07F0EECFB2
:100F800008F0190EC9EF87F0D89008320732063200
:100F90000532E82EC4EF87F005500B100C10DF6E01
:100FA00097EF88F0F10EE3CFD9FFF20EE3CFDAFF2F
:100FB000DECF09F0DECF0AF0DECF0BF0DECF0CF093
:100FC000130EE8EF87F0D8900C320B320A32093258
:100FD000E82EE3EF87F0FF0E0914056E070E0A14E2
:100FE000066E000E0B14076E000E0C14086EF10E48
:100FF000E3CFD9FFF20EE3CFDAFFFF0EDE14096E66
:10100000FF0EDE140A6E030EDE140B6E000EDE14ED
:101010000C6E0B0ED89009360A360B360C36E82EBD
:101020000AEF88F005500910016E06500A10026E92
:1010300007500B10036E08500C10046EF40E01C024
:10104000E3FFF50E02C0E3FFF60E03C0E3FFF70E69
:1010500004C0E3FFE150F40FD96EE250DA6EFF0EE8
:10106000DA22FF0EDE16FF0EDE16FF0EDE161F0E54
:10107000DE16F40EE3CF01F0F80E01C0E3FFF50E2B
:10108000E124D96EFF0EE220DA6EF90EE124E96E5A
:10109000FF0EE220EA6EDFCFEFFFF60EE124D96EFD
:1010A000FF0EE220DA6EFA0EE124E96EFF0EE22076
:1010B000EA6EDFCFEFFFFB0EE124D96EFF0EE220D8
:1010C000DA6EF70EE124E96EFF0EE220EA6EEF50D1
:1010D0000C6EF10EE3CF09F0F20EE3CF0AF0050E2D
:1010E0000924E96E000E0A20EA6EEF500B6E060E20
:1010F000016ED8900B36012E79EF88F0F10EE3CF18
:1011000009F0F20EE3CF0AF0040E0924E96E000E96
:101110000A20EA6EEF500A6E050E016ED8900A366C
:10112000012E8EEF88F00A500B100C10DF6EF30EBC
:10113000E350080DF3CF0BF0F4CF0CF0F00E0B24BE
:10114000096E010E0C200A6EFE0E09C0E3FFFF0EB1
:101150000AC0E3FFF80EE3CFE6FFE3CFE6FFE3CFFD
:10116000E6FFE3CFE6FFFA0EE3CFE6FFE3CFE6FFCD
:101170009CEC9BF0F10EE126FF0EE22212000C0E19
:10118000E126000EE222F80EE36AF90EE36AFA0E97
:10119000E36AFB0EE36AF00EE350D8A4D2EF88F0C6
:1011A000D4EF88F06CEF89F0F10EE3CFD9FFF20EA7
:1011B000E3CFDAFFDF500C6EF80E0CC0E3FFF90E40
:1011C000E124D96EFF0EE220DA6EF10EE3CFE9FFE3
:1011D000F20EE3CFEAFFEECF09F0EECF0AF0EECF4A
:1011E0000BF0EECF0CF00AC009F00BC00AF00CC0F7
:1011F0000BF00C6A0950DF6EFA0EE124D96EFF0E77
:10120000E220DA6EF10EE3CFE9FFF20EE3CFEAFF60
:10121000EECF09F0EECF0AF0EECF0BF0EECF0CF0F0
:10122000110E18EF89F0D8900C320B320A320932C5
:10123000E82E13EF89F00950DF6EFB0EE124D96E22
:10124000FF0EE220DA6EF10EE3CF0BF0F20EE3CFE9
:101250000CF0050E0B24E96E000E0C20EA6EEF5028
:101260000C6E060E016ED8900C36012E33EF89F00D
:10127000F10EE3CF09F0F20EE3CF0AF0040E0924D9
:10128000E96E000E0A20EA6EEF500B6E050E016E3D
:10129000D8900B36012E48EF89F0F10EE3CFE9FF2D
:1012A000F20EE3CFEAFFEECF05F0EECF06F0EECF81
:1012B00007F0EECF08F0190E63EF89F0D8900832EE
:1012C000073206320532E82E5EEF89F005500B102A
:1012D0000C10DF6E31EF8AF0F10EE3CFD9FFF20E82
:1012E000E3CFDAFFDECF09F0DECF0AF0DECF0BF07E
:1012F000DECF0CF0130E82EF89F0D8900C320B3257
:101300000A320932E82E7DEF89F0FF0E0914056ECE
:10131000070E0A14066E000E0B14076E000E0C1456
:10132000086EF10EE3CFD9FFF20EE3CFDAFFFF0E26
:10133000DE14096EFF0EDE140A6E030EDE140B6E51
:10134000000EDE140C6E0B0ED89009360A360B36E2
:101350000C36E82EA4EF89F005500910016E0650F6
:101360000A10026E07500B10036E08500C10046E2A
:10137000F40E01C0E3FFF50E02C0E3FFF60E03C05A
:10138000E3FFF70E04C0E3FFE150F40FD96EE25023
:10139000DA6EFF0EDA22FF0EDE16FF0EDE16FF0EED
:1013A000DE161F0EDE16F40EE3CF01F0F80E01C0BC
:1013B000E3FFF50EE124D96EFF0EE220DA6EF90E9E
:1013C000E124E96EFF0EE220EA6EDFCFEFFFF60EBA
:1013D000E124D96EFF0EE220DA6EFA0EE124E96E06
:1013E000FF0EE220EA6EDFCFEFFFFB0EE124D96EA5
:1013F000FF0EE220DA6EF70EE124E96EFF0EE22026
:10140000EA6EEF500C6EF10EE3CF09F0F20EE3CF6F
:101410000AF0050E0924E96E000E0A20EA6EEF506C
:101420000B6E060E016ED8900B36012E13EF8AF06C
:10143000F10EE3CF09F0F20EE3CF0AF0040E092417
:10144000E96E000E0A20EA6EEF500A6E050E016E7C
:10145000D8900A36012E28EF8AF00A500B100C1093
:10146000DF6EF30EE350080DF3CF0BF0F4CF0CF06A
:10147000F40E0B24096E010E0C200A6EFE0E09C03C
:10148000E3FFFF0E0AC0E3FFF80EE3CFE6FFE3CF72
:10149000E6FFE3CFE6FFE3CFE6FFFA0EE3CFE6FF9A
:1014A000E3CFE6FF9CEC9BF0F00EE126FF0EE2227C
:1014B00012000D0EE126000EE222ED0EE3CF0BF03E
:1014C000EE0EE3CF0CF0D8900B360C36D8900B36DE
:1014D0000C36020E0B26000E0C22FB0E0BC0E3FF97
:1014E000FC0E0CC0E3FFF20EE124D96EFF0EE220E9
:1014F000DA6EDF500F0B300F0101006FF10EE3CFFA
:1015000001F1020E0B6E000E0C6EF70E0BC0E3FF26
:10151000F80E0CC0E3FFA9EF8AF0F70EE3CF0BF053
:10152000F80EE3CF0CF0000E0B24D96E010E0C2048
:10153000DA6EDF6AF70EE350010F016EF70E01C09D
:10154000E3FF016AF80EE3500120016EF80E01C0BE
:10155000E3FFFB0EE3CF0BF0FC0EE3CF0CF0F70E36
:10156000E3CF09F0F80EE3CF0AF00B50095C0C5002
:101570000A58D8A0BEEF8AF0C0EF8AF08DEF8AF04B
:10158000FB0EE3CFE6FFE3CFE6FF000EE66E020EB2
:10159000E66E000EE66E010EE66E39EC9DF0FF0E73
:1015A00001C0E3FFFF0EE350D8B4D9EF8AF0DBEFC0
:1015B0008AF0E0EF8AF0FF0EE3CF01F098EF8BF0B6
:1015C000020E0B6E000E0C6EFD0E0BC0E3FFFE0E46
:1015D0000CC0E3FFF70EE36AF80EE36A7FEF8BF0CF
:1015E000F30EE36AF40EE36AF50EE36AF60EE36ABD
:1015F000F90EE36AFA0EE36AFD0EE3CF0BF0FE0E7E
:10160000E3CF0CF0000E0B24D96E020E0C20DA6E24
:10161000F90EE3CF0BF0FA0EE3CF0CF0F30EE1245A
:10162000096EFF0EE2200A6E0B500924E96E0C5081
:101630000A20EA6EDFCFEFFFF90EE350010F016ED3
:10164000F90E01C0E3FF016AFA0EE3500120016EBA
:10165000FA0E01C0E3FFFD0EE350010F016EFD0E17
:1016600001C0E3FF016AFE0EE3500120016EFE0E91
:1016700001C0E3FFFA0EE3500CE1F90EE3CF01F0F5
:10168000040E015ED8A047EF8BF049EF8BF0FCEF22
:101690008AF0E150F30FD96EE250DA6EFF0EDA22D3
:1016A000F70EE3CF0BF0F80EE3CF0CF0D8900B362B
:1016B0000C36D8900B360C36EF0EE3CF09F0F00E57
:1016C000E3CF0AF00B500924E96E0C500A20EA6EB1
:1016D000DECFEEFFDECFEEFFDECFEEFFDECFEEFFA2
:1016E000F70EE350010F016EF70E01C0E3FF016A30
:1016F000F80EE3500120016EF80E01C0E3FFED0E7D
:10170000E3CF0BF0EE0EE3CF0CF0F70EE3CF09F0D2
:10171000F80EE3CF0AF00B50095C0C500A58D8A021
:1017200094EF8BF096EF8BF0F0EF8AF0DBEF8AF01E
:10173000ED0EE126FF0EE2221200E652E652E652DC
:10174000E6528D0EF66EFF0EF76E000EF86E090073
:10175000F5CF09F00900F5CF0AF00900F5CF0BF03D
:101760000900F5CF0CF0FC0E09C0E3FFFD0E0AC026
:10177000E3FFFE0E0BC0E3FFFF0E0CC0E3FFFA0E0B
:10178000E3CFD9FFFB0EE3CFDAFFDF501F0B0C6E68
:10179000E150FC0FD96EE250DA6EFF0EDA22DF5014
:1017A0000C18E00B0C18DF6EFA0EE3CFD9FFFB0E1E
:1017B000E3CFDAFFE150FC0FE96EE250EA6EFF0E74
:1017C000EA22EF9ADFAAE6EF8BF0EF8AFA0EE3CF78
:1017D000D9FFFB0EE3CFDAFFE150FC0FE96EE250D8
:1017E000EA6EFF0EEA22EF9CDFACF8EF8BF0EF8C95
:1017F000FA0EE3CFD9FFFB0EE3CFDAFFFD0EE124B3
:10180000E96EFF0EE220EA6EEF90DFAE09EF8CF09A
:10181000EF80FA0EE3CF0BF0FB0EE3CF0CF0010EDE
:101820000B24D96E000E0C20DA6EDF50030B0C6E09
:10183000FD0EE124D96EFF0EE220DA6E0C46DF5079
:101840000C18F90B0C18DF6EFA0EE3CF0BF0FB0E41
:10185000E3CF0CF0010E0B24D96E000E0C20DA6ED3
:10186000FD0EE124E96EFF0EE220EA6EEF98DFA4A0
:101870003BEF8CF0EF88FA0EE3CF0BF0FB0EE3CFDB
:101880000CF0010E0B24D96E000E0C20DA6EFE0E49
:10189000E124E96EFF0EE220EA6EEF90DFA652EF40
:1018A0008CF0EF80FA0EE3CF0BF0FB0EE3CF0CF0E1
:1018B000010E0B24D96E000E0C20DA6EFE0EE12410
:1018C000E96EFF0EE220EA6EEF92DFA869EF8CF07E
:1018D000EF82FA0EE3CF0BF0FB0EE3CF0CF0010E1C
:1018E0000B24D96E000E0C20DA6EFE0EE124E96E98
:1018F000FF0EE220EA6EEF94DFAA80EF8CF0EF8417
:10190000FA0EE3CF0BF0FB0EE3CF0CF0010E0B242D
:10191000D96E000E0C20DA6EFE0EE124E96EFF0E89
:10192000E220EA6EEF96DFAC97EF8CF0EF86FA0ECE
:10193000E3CF0BF0FB0EE3CF0CF0010E0B24D96EBE
:10194000000E0C20DA6EFE0EE124E96EFF0EE2209E
:10195000EA6EEF98DFAEAEEF8CF0EF88FA0EE3CFD1
:101960000BF0FB0EE3CF0CF0020E0B24D96E000E31
:101970000C20DA6EDF500F0B0C6EFF0EE124D96ED7
:10198000FF0EE220DA6E0C3ADF500C180F0B0C1829
:10199000DF6EFC0EE3CFE6FFE3CFE6FFE3CFE6FF2B
:1019A000E3CFE6FF000EE66E000EE66E9CEC9BF0C9
:1019B000FA0EE126FF0EE2221200E652E652E6524D
:1019C000E6528D0EF66EFF0EF76E000EF86E0900F1
:1019D000F5CF09F00900F5CF0AF00900F5CF0BF0BB
:1019E0000900F5CF0CF0FC0E09C0E3FFFD0E0AC0A4
:1019F000E3FFFE0E0BC0E3FFFF0E0CC0E3FFE15060
:101A0000FC0FD96EE250DA6EFF0EDA22DF501F0BA8
:101A10000C6EFA0EE3CFD9FFFB0EE3CFDAFFDF50F7
:101A20000C18E00B0C18DF6EE150FC0FD96EE25081
:101A3000DA6EFF0EDA22FA0EE3CFE9FFFB0EE3CFF8
:101A4000EAFFEF9ADFAA26EF8DF0EF8AE150FC0F54
:101A5000D96EE250DA6EFF0EDA22FA0EE3CFE9FF1A
:101A6000FB0EE3CFEAFFEF9CDFAC38EF8DF0EF8C9D
:101A7000FD0EE124D96EFF0EE220DA6EFA0EE3CFFE
:101A8000E9FFFB0EE3CFEAFFEF9EDFA049EF8DF009
:101A9000EF8EFD0EE124D96EFF0EE220DA6EDF300C
:101AA000030B0C6EFA0EE3CF09F0FB0EE3CF0AF046
:101AB000010E0924D96E000E0A20DA6EDF500C18D0
:101AC000FC0B0C18DF6EFD0EE124D96EFF0EE22038
:101AD000DA6EFA0EE3CF0BF0FB0EE3CF0CF0010E43
:101AE0000B24E96E000E0C20EA6EEF94DFA87AEF6B
:101AF0008DF0EF84FE0EE124D96EFF0EE220DA6E47
:101B0000FA0EE3CF0BF0FB0EE3CF0CF0010E0B242B
:101B1000E96E000E0C20EA6EEF96DFA091EF8DF0DB
:101B2000EF86FE0EE124D96EFF0EE220DA6EFA0E89
:101B3000E3CF0BF0FB0EE3CF0CF0010E0B24E96EAC
:101B4000000E0C20EA6EEF98DFA2A8EF8DF0EF8870
:101B5000FE0EE124D96EFF0EE220DA6EFA0EE3CF1C
:101B60000BF0FB0EE3CF0CF0010E0B24E96E000E20
:101B70000C20EA6EEF9ADFA4BFEF8DF0EF8AFE0E25
:101B8000E124D96EFF0EE220DA6EFA0EE3CF0BF0FD
:101B9000FB0EE3CF0CF0010E0B24E96E000E0C20BF
:101BA000EA6EEF9CDFA6D6EF8DF0EF8CFE0EE124FF
:101BB000D96EFF0EE220DA6EFA0EE3CF0BF0FB0EC9
:101BC000E3CF0CF0010E0B24E96E000E0C20EA6E40
:101BD000EF9EDFA8EDEF8DF0EF8EFF0EE124D96EC2
:101BE000FF0EE220DA6EDF380F0B0C6EFA0EE3CF39
:101BF00009F0FB0EE3CF0AF0020E0924D96E000EA5
:101C00000A20DA6EDF500C18F00B0C18DF6EFA0E9B
:101C1000E126FF0EE2221200E652E652E652E652BA
:101C2000910EF66EFF0EF76E000EF86E0900F5CFFE
:101C300009F00900F5CF0AF00900F5CF0BF0090013
:101C4000F5CF0CF0FC0E09C0E3FFFD0E0AC0E3FF68
:101C5000FE0E0BC0E3FFFF0E0CC0E3FFC8EF8EF0DB
:101C6000FF0EE124D96EFF0EE220DA6EDF6AFE0E6F
:101C7000E124D96EFF0EE220DA6E3E0EDF6EFD0E1D
:101C8000E124D96EFF0EE220DA6EDF50800B0F09DF
:101C9000DF6EE150FC0FD96EE250DA6EFF0EDA22F1
:101CA000DF50800B0F09DF6E1EEF8FF0FF0EE12477
:101CB000D96EFF0EE220DA6EDF6AFE0EE124D96EE5
:101CC000FF0EE220DA6E7E0EDF6EFD0EE124D96E8D
:101CD000FF0EE220DA6EDF50800B1F09DF6EE1504D
:101CE000FC0FD96EE250DA6EFF0EDA22DF50800B65
:101CF0001F09DF6E1EEF8FF0FF0EE124D96EFF0E7D
:101D0000E220DA6EDF6AFE0EE124D96EFF0EE220D9
:101D1000DA6E1E0EDF6EFD0EE124D96EFF0EE2209C
:101D2000DA6EDF50800B0709DF6EE150FC0FD96ED1
:101D3000E250DA6EFF0EDA22DF50800B0709DF6E09
:101D40001EEF8FF0FF0EE124D96EFF0EE220DA6E57
:101D5000DF6AFE0EE124D96EFF0EE220DA6EFE0E7F
:101D6000DF6EFD0EE124D96EFF0EE220DA6EDF5049
:101D7000800B3F09DF6EE150FC0FD96EE250DA6E46
:101D8000FF0EDA22DF50800B3F09DF6E1EEF8FF06F
:101D9000FB0EE3500B6E0C6A0C50000AD8B4D3EF64
:101DA0008EF02DEF8FF00B50000AD8B430EF8EF08C
:101DB000010AD8B430EF8EF0030AD8B430EF8EF0B9
:101DC000010AD8B430EF8EF0070AD8B430EF8EF0A5
:101DD000010AD8B430EF8EF0030AD8B430EF8EF099
:101DE000010AD8B430EF8EF00F0AD8B456EF8EF057
:101DF000010AD8B456EF8EF0030AD8B456EF8EF02D
:101E0000010AD8B456EF8EF0070AD8B456EF8EF018
:101E1000010AD8B456EF8EF0030AD8B456EF8EF00C
:101E2000010AD8B47CEF8EF01F0AD8B47CEF8EF094
:101E3000010AD8B4A2EF8EF02DEF8FF0FC0EE3CFA5
:101E4000E6FFE3CFE6FFE3CFE6FFE3CFE6FF040ED6
:101E5000E66E000EE66E9CEC9BF0FB0EE126FF0E9C
:101E6000E22212000D0EE126000EE22298988F88E1
:101E70003EECA4F0F20EE350E66E0CEC8EF0F70EA2
:101E8000E124016EFF0EE220026E01C0E6FF02C0F7
:101E9000E6FFDDEC8CF0E150F70FD96EE250DA6E20
:101EA000FF0EDA22DF8AF80EE124D96EFF0EE2205F
:101EB000DA6EDF8CF80EE124D96EFF0EE220DA6EC6
:101EC000DF8EF70EE124016EFF0EE220026E01C0EC
:101ED000E6FF02C0E6FF9DEC8BF0E150FF0FD96EEC
:101EE000E250DA6EFF0EDA22DF50C10B1609DF6E08
:101EF000E150FF0FD96EE250DA6EFF0EDA22DF807A
:101F0000FF0EE124016EFF0EE220026E01C0E6FF2B
:101F100002C0E6FF9BEC9DF0F30EE124016EFF0E84
:101F2000E220026E01C0E6FF02C0E6FFB0EC9AF0CC
:101F3000F30EE36AE32AF50EE124D96EFF0EE220E8
:101F4000DA6E070EDF6EF60EE124D96EFF0EE22088
:101F5000DA6E050EDF6EF30EE124016EFF0EE22055
:101F6000026E01C0E6FF02C0E6FFE2EC97F0FD0E54
:101F7000E124016EFF0EE220026E01C0E6FF02C006
:101F8000E6FF82EC98F0FE0EE124D96EFF0EE2200F
:101F9000DA6EDF50E00B0409DF6EFE0EE124D96E2D
:101FA000FF0EE220DA6EE00EDF12E150FD0FD96E77
:101FB000E250DA6EFF0EDA22C10EDF16FD0EE124CA
:101FC000016EFF0EE220026E01C0E6FF02C0E6FFD6
:101FD000010EE66E71EC94F0FB0EE124D96EFF0E5B
:101FE000E220DA6E0F0EDF6EFC0EE124D96EFF0EDA
:101FF000E220DA6E070EDF6EFA0EE36AE32AFA0ECB
:10200000E124016EFF0EE220026E01C0E6FF02C075
:10201000E6FF020EE66E41EC97F0270EE66E000E2C
:10202000E66E8CECA4F0000EE66E000EE66E000E7E
:10203000E66E000EE66E54ECA4F0CAECA2F0F10ECF
:10204000E304D8A426EF90F028EF90F030EF90F062
:10205000020EE66E000EE66E000EE66E67ECA2F073
:10206000060EE66E83ECA1F0F10EE126FF0EE222F1
:102070001200E652E652E652E652FC0EE36AFD0E0C
:10208000E36AFE0EE36AFF0EE36A00000000FB0E47
:10209000E3CF01F0090E016050EF90F052EF90F0A5
:1020A000EDEF90F0FB0EE3CF0CF00CC005F0066AEC
:1020B000076A086AFC0E05C0E3FFFD0E06C0E3FFD9
:1020C000FE0E07C0E3FFFF0E08C0E3FF17EF91F01D
:1020D0000C0E096E0A6A0B6A0C6AFC0E09C0E3FF5B
:1020E000FD0E0AC0E3FFFE0E0BC0E3FFFF0E0CC0A7
:1020F000E3FF17EF91F0100E096E0A6A0B6A0C6A83
:10210000FC0E09C0E3FFFD0E0AC0E3FFFE0E0BC08C
:10211000E3FFFF0E0CC0E3FF17EF91F0140E096E02
:102120000A6A0B6A0C6AFC0E09C0E3FFFD0E0AC0C6
:10213000E3FFFE0E0BC0E3FFFF0E0CC0E3FF17EF43
:1021400091F0180E096E0A6A0B6A0C6AFC0E09C03F
:10215000E3FFFD0E0AC0E3FFFE0E0BC0E3FFFF0E20
:102160000CC0E3FF17EF91F0200E096E0A6A0B6AAC
:102170000C6AFC0E09C0E3FFFD0E0AC0E3FFFE0E71
:102180000BC0E3FFFF0E0CC0E3FF17EF91F0300E22
:10219000096E0A6A0B6A0C6AFC0E09C0E3FFFD0EA9
:1021A0000AC0E3FFFE0E0BC0E3FFFF0E0CC0E3FF0F
:1021B00017EF91F0400E096E0A6A0B6A0C6AFC0E6A
:1021C00009C0E3FFFD0E0AC0E3FFFE0E0BC0E3FFF4
:1021D000FF0E0CC0E3FF17EF91F0FB0EE3500B6E08
:1021E0000C6A0C50000AD8B4F8EF90F017EF91F099
:1021F0000B50090AD8B468EF90F0030AD8B47BEF0B
:1022000090F0010AD8B48EEF90F0070AD8B4A1EF8D
:1022100090F0010AD8B4B4EF90F0030AD8B4C7EF35
:1022200090F0010AD8B4DAEF90F017EF91F0FC0EBD
:10223000E3CF01F0FD0EE3CF02F0FE0EE3CF03F09B
:10224000FF0EE3CF04F0FB0EE126FF0EE2221200A8
:10225000180EE126000EE222F80EE124016EFF0EB8
:10226000E220026E01C0E6FF02C0E6FFE60EE124B6
:10227000016EFF0EE220026E01C0E6FF02C0E6FF23
:1022800035ECA2F00150D8A448EF91F04AEF91F05C
:102290000BEF92F0CDEF91F0F80EE3CF6EF0F80E69
:1022A000E350D8A456EF91F058EF91F076EF91F00B
:1022B000000EE66E000EE66E020EE66E580EE66E3C
:1022C000270EE66E010EE66E08EC9CF0000EE66E40
:1022D000000EE66E020EE66E200EE66E240EE66E30
:1022E000010EE66E08EC9CF00BEF92F0000EE66E2D
:1022F000000EE66E030EE66E580EE66E270EE66ED4
:10230000010EE66E08EC9CF0000EE66E000EE66E26
:10231000030EE66E200EE66E240EE66E010EE66EED
:1023200008EC9CF00BEF92F0F80EE3CF6CF0F80E97
:10233000E3CF01F0060E0164A0EF91F0A2EF91F05F
:102340000BEF92F0000EE66E000EE66E040EE66EE7
:10235000580EE66E270EE66E010EE66E08EC9CF057
:102360000BEF92F0F80EE3CF01F0060E0164BBEF25
:1023700091F0BDEF91F00BEF92F0000EE66E000EC3
:10238000E66E080EE66E200EE66E240EE66E010E78
:10239000E66E08EC9CF00BEF92F0E150E80FD96E7E
:1023A000E250DA6EFF0EDA22F00EDE14096E070E2E
:1023B000DE140A6E000EDE140B6E000EDE140C6EC0
:1023C0000C50000AD8B404EF92F00BEF92F00A50D0
:1023D000000AD8B4F2EF91F0010AD8B4FDEF91F001
:1023E0000BEF92F00950400AD8B494EF91F0100A24
:1023F000D8B44CEF91F00BEF92F00950400AD8B4EA
:10240000B2EF91F00BEF92F00B50000AD8B4E7EF67
:1024100091F00BEF92F0E80EE126FF0EE22212009F
:1024200080EF92F0FE0EE3CFD9FFFF0EE3CFDAFF8D
:10243000DF50E806D8A41FEF92F021EF92F09DEF55
:1024400092F0010E3E6E9DEF92F0FE0EE3CFD9FFAB
:10245000FF0EE3CFDAFFDF50030AD8A432EF92F089
:1024600034EF92F09DEF92F0040E3E6E9DEF92F0ED
:10247000FE0EE3CFD9FFFF0EE3CFDAFFDF50020AF3
:10248000D8A445EF92F047EF92F04BEF92F0010E97
:102490003E6E5CEF92F0FE0EE3CFD9FFFF0EE3CF6E
:1024A000DAFFDF50090AD8A458EF92F05AEF92F001
:1024B0005CEF92F0040E3E6EFE0EE3CFD9FFFF0EEE
:1024C000E3CFDAFFDF50020AD8A469EF92F06BEF96
:1024D00092F06DEF92F021EF92F0FE0EE3CFD9FF74
:1024E000FF0EE3CFDAFFDF50080AD8A47AEF92F0AC
:1024F0007CEF92F09DEF92F0020E3E6E9DEF92F017
:102500003E500B6E0C6A0C50000AD8B48AEF92F061
:102510009DEF92F00B50000AD8B412EF92F0010A2E
:10252000D8B425EF92F0030AD8B438EF92F0060A37
:10253000D8B45CEF92F09DEF92F03E503D18D8A4D5
:10254000A4EF92F0A6EF92F0A8EF92F0E3EF92F0F2
:102550003EC03DF0C2EF92F0000EE66E52EC9EF0EF
:10256000E3EF92F0320EE66E06EC9FF0320EE66E6E
:10257000ACEC9EF0E3EF92F00A0EE66E52EC9EF0A9
:10258000E3EF92F03E500B6E0C6A0C50000AD8B488
:10259000CCEF92F0E3EF92F00B50000AD8B4E3EFE7
:1025A00092F0010AD8B4ACEF92F0030AD8B4B2EFBB
:1025B00092F0010AD8B4E3EF92F0070AD8B4BCEF66
:1025C00092F0E3EF92F0E552E5521200050EE1269B
:1025D000000EE222F50EE350020F0B6EF60EE3CF73
:1025E0000CF0000E0C22FD0E0BC0E3FFFE0E0CC023
:1025F000E3FFFA0EE124D96EFF0EE220DA6EDF501F
:102600000F0B300F0101006FF90EE3CF01F1020E45
:102610000B6E000E0C6EFB0E0BC0E3FFFC0E0CC02D
:10262000E3FF2FEF93F0FB0EE3CF0BF0FC0EE3CFB5
:102630000CF0000E0B24D96E010E0C20DA6EDF6A4E
:10264000FB0EE350010F016EFB0E01C0E3FF016AB8
:10265000FC0EE3500120016EFC0E01C0E3FFFD0EF5
:10266000E3CF0BF0FE0EE3CF0CF0FB0EE3CF09F04F
:10267000FC0EE3CF0AF00B50095C0C500A58D8A0AE
:1026800044EF93F046EF93F013EF93F0FD0EE3CF9A
:10269000E6FFE3CFE6FF000EE66E020EE66E000EEA
:1026A000E66E010EE66E39EC9DF0FF0E01C0E3FF11
:1026B000FB0EE36AFC0EE36A8DEF93F0FB0EE3CFB3
:1026C0000BF0FC0EE3CF0CF0020E0B24D96E020EC1
:1026D0000C20DA6EFB0EE3CF0BF0FC0EE3CF0CF018
:1026E000F70EE3CF09F0F80EE3CF0AF00B50092400
:1026F000E96E0C500A20EA6EDFCFEFFFFB0EE350CD
:10270000010F016EFB0E01C0E3FF016AFC0EE350F6
:102710000120016EFC0E01C0E3FFF50EE3CF0BF0CC
:10272000F60EE3CF0CF0FB0EE3CF09F0FC0EE3CF87
:102730000AF00B50095C0C500A58D8A0A2EF93F095
:10274000A4EF93F05EEF93F0FF0EE3CF01F0F50EF0
:10275000E126FF0EE22212000BEF94F0FE0EE3CF13
:10276000D9FFFF0EE3CFDAFFDF50E806D8A4BBEFB6
:1027700093F0BDEF93F028EF94F0010E3A6E28EF3E
:1027800094F0FE0EE3CFD9FFFF0EE3CFDAFFDF5068
:10279000030AD8A4CEEF93F0D0EF93F028EF94F093
:1027A000020E3A6E28EF94F0FE0EE3CFD9FFFF0E33
:1027B000E3CFDAFFDF50020AD8A4E1EF93F0E3EFB2
:1027C00093F0E5EF93F0BDEF93F0FE0EE3CFD9FF6A
:1027D000FF0EE3CFDAFFDF50040AD8A4F2EF93F044
:1027E000F4EF93F028EF94F0030E3A6E28EF94F094
:1027F000FE0EE3CFD9FFFF0EE3CFDAFFDF50020A70
:10280000D8A405EF94F007EF94F0D0EF93F0010E09
:102810003A6ED0EF93F03A500B6E0C6A0C50000AEF
:10282000D8B415EF94F028EF94F00B50000AD8B408
:10283000AEEF93F0010AD8B4C1EF93F0030AD8B415
:10284000D4EF93F0010AD8B4F8EF93F028EF94F0A6
:102850003A503918D8A42FEF94F031EF94F033EFB9
:1028600094F06EEF94F03AC039F051EF94F0000E0E
:10287000E66E06EC9FF0000EE66EACEC9EF06EEF9E
:1028800094F0320EE66E06EC9FF0320EE66EACEC83
:102890009EF06EEF94F0640EE66EACEC9EF06EEF80
:1028A00094F03A500B6E0C6A0C50000AD8B45BEFEF
:1028B00094F06EEF94F00B50000AD8B46EEF94F0E1
:1028C000010AD8B437EF94F0030AD8B441EF94F07A
:1028D000010AD8B44BEF94F06EEF94F0E552E55254
:1028E0001200070EE126000EE222DD0EF66EFF0E4C
:1028F000F76E000EF86E0900F5CF09F00900F5CF6C
:102900000AF00900F5CF0BF00900F5CF0CF0F90E35
:1029100009C0E3FFFA0E0AC0E3FFFB0E0BC0E3FFA2
:10292000FC0E0CC0E3FFE150F90FD96EE250DA6EF5
:10293000FF0EDA22DF8EF60EE3CF0BF0F70EE3CFB9
:102940000CF0010E0B24D96E000E0C20DA6EDF5055
:102950001F0B0C6EFC0EE124D96EFF0EE220DA6E26
:10296000DF500C18E00B0C18DF6EF60EE3CF0BF007
:10297000F70EE3CF0CF0010E0B24D96E000E0C20E5
:10298000DA6EDF38E832070B0C6EFC0EE124D96EEC
:10299000FF0EE220DA6E0C3A0C46DF500C181F0BCB
:1029A0000C18DF6EF60EE3CFD9FFF70EE3CFDAFF98
:1029B000DF38E832E832030B0C6EFB0EE124D96EEF
:1029C000FF0EE220DA6E0C3A0C46DF500C189F0B1B
:1029D0000C18DF6EF60EE3CFD9FFF70EE3CFDAFF68
:1029E000DF301F0B0C6EFB0EE124D96EFF0EE220D0
:1029F000DA6EDF500C18E00B0C18DF6EF60EE3CF2A
:102A0000D9FFF70EE3CFDAFFE150F90FE96EE2509C
:102A1000EA6EFF0EEA22EF9CDFA010EF95F0EF8C3C
:102A2000F80EE3500C0D500EF326000EF422FE0EAD
:102A3000F3CFE3FFFF0EF4CFE3FFF90EE3CFE6FFA2
:102A4000E3CFE6FFE3CFE6FFE3CFE6FFFA0EE3CF07
:102A5000E6FFE3CFE6FF9CEC9BF0F60EE126FF0ECF
:102A6000E2221200E652E652E652F70EE124016E2F
:102A7000FF0EE220026E01C0E6FF02C0E6FF68EC36
:102A8000A4F0FD0E01C0E3FFFE0E02C0E3FFFD0E49
:102A9000E3CF01F0FE0EE3500110D8B452EF95F0F1
:102AA00054EF95F084EF95F0000EE66E000EE66EA2
:102AB000F50EE124016EFF0EE220026E01C0E6FF7A
:102AC00002C0E6FFD8ECA3F0F60EE350E66EF60E79
:102AD000E124D96EFF0EE220DA6E060EDECFE6FFAD
:102AE000E82C6EEF95F0F60EE3CFE6FFE3CFE6FFBE
:102AF00027EC9BF0F40EE3CFD9FFF50EE3CFDAFF1E
:102B000001C0DFFFEBEF95F0F60EE350E66EB3EC9D
:102B1000A4F023EEDFF0DF500B6E0C6A010E0B26E3
:102B2000000E0C220CBE9EEF95F00C5009E11E0E1B
:102B30000B5CD8A09EEF95F0A0EF95F0A2EF95F07A
:102B4000D9ECA4F0DFC3E8FF010FE8CFDFF323EEF9
:102B5000DFF003EEDEF0DE50EE5CD8B0B2EF95F0C1
:102B6000B4EF95F0B6EF95F0DFC3DEF31E0EE66E20
:102B7000000EE66E23EEDCF0DF500B6E0C6A010EE9
:102B80000B26000E0C220BC0E6FF0CC0E6FF9CECEF
:102B900096F0FF0E01C0E3FFF70EE124D96EFF0EA1
:102BA000E220DA6E03EEDCF0EF50060D280EF3247F
:102BB000E96E030EF420EA6E050EDBCFEBFFE806AC
:102BC000FCE2FF0EE3CF0CF00CC0DCF3F60EE3509A
:102BD000E66EA7ECA4F0010E016EF40EE126FF0EE6
:102BE000E2221200E652E652FE0EE36AFF0EE36AAC
:102BF000FE0EE3CF0BF0FF0EE3CF0CF0060E0B0240
:102C0000F3CF09F0F4CF0AF00C02F3500A26280E95
:102C100009240B6E030E0A200C6E0BC0E6FF0CC0DD
:102C2000E6FF51ECA3F0FE0EE350010F016EFE0E25
:102C300001C0E3FF016AFF0EE3500120016EFF0EA9
:102C400001C0E3FFFF0EE3BE33EF96F0FF0EE3504B
:102C50000CE1FE0EE3CF01F01E0E015ED8A033EFB3
:102C600096F035EF96F0F8EF95F0FE0EE36AFF0E62
:102C7000E36AFE0EE3CF0BF0FF0EE3CF0CF0D8902B
:102C80000B360C36D8900B360C36D8900B360C36EB
:102C9000C80E0B24D96E020E0C20DA6EDE6ADD6AD5
:102CA000FE0EE3CF0BF0FF0EE3CF0CF0D8900B3607
:102CB0000C36D8900B360C36D8900B360C36CA0E24
:102CC0000B24096E020E0C200A6E09C0E6FF0AC032
:102CD000E6FF51ECA3F0FE0EE350010F016EFE0E75
:102CE00001C0E3FF016AFF0EE3500120016EFF0EF9
:102CF00001C0E3FFFF0EE3BE8BEF96F0FF0EE35043
:102D00000CE1FE0EE3CF01F00C0E015ED8A08BEFBC
:102D100096F08DEF96F039EF96F0000EE8CFDCF3E9
:102D2000000EE8CFDDF3000EE8CFDEF3000EE8CFB3
:102D3000DFF3E552E5521200E652E652FE0EE36A78
:102D4000FD0EE3BEA8EF96F0A6EF96F0B1EF96F079
:102D5000FC0EE36CFD0EE31ED8B0E32AFE0EE36A20
:102D6000E32AFB0EE3BEB9EF96F0B7EF96F0BFEFA4
:102D700096F0FA0EE36CFB0EE31ED8B0E32AFA0ECF
:102D8000E3CF01F0FB0EE3500110D8B4CAEF96F088
:102D9000CCEF96F027EF97F0FF0EE36AE32AE2EF1D
:102DA00096F0FA0EE350D890E834016EFA0E01C0A6
:102DB000E3FFFB0EE350E834016EFB0E01C0E3FFBE
:102DC000FF0EE32AFB0EE3AEE8EF96F0EAEF96F093
:102DD000D1EF96F0FA0EE3CF0BF0FB0EE3CF0CF041
:102DE000FC0EE3CF09F0FD0EE3CF0AF00B50095CB7
:102DF0000C500A58D8A0FFEF96F001EF97F013EFB0
:102E000097F0FC0EE350016EFA0EE350015EFC0EEB
:102E100001C0E3FFFD0EE350016EFB0EE350015ACB
:102E2000FD0E01C0E3FFD890FB0EE332FA0EE33251
:102E3000FF0EE350016E010E015EFF0E01C0E3FFC5
:102E4000D8A425EF97F027EF97F0EAEF96F0FE0E63
:102E5000E350D8B42EEF97F030EF97F036EF97F0BD
:102E6000FC0EE36CFD0EE31ED8B0E32AFC0EE3CFAC
:102E700001F0FD0EE3CF02F0FA0EE126FF0EE22292
:102E80001200070EE126000EE222F80EE350D8A44D
:102E90004CEF97F04EEF97F050EF97F0DDEF97F093
:102EA000DD0EF66EFF0EF76E000EF86E0900F5CF20
:102EB00009F00900F5CF0AF00900F5CF0BF0090081
:102EC000F5CF0CF0F90E09C0E3FFFA0E0AC0E3FFDC
:102ED000FB0E0BC0E3FFFC0E0CC0E3FFE150F90F4B
:102EE000D96EE250DA6EFF0EDA22DF9EFC0EE1248C
:102EF000D96EFF0EE220DA6EF60EE3CF0BF0F70E7E
:102F0000E3CF0CF0010E0B24E96E000E0C20EA6EEC
:102F1000EF500C6EF60EE3CF09F0F70EE3CF0AF098
:102F2000020E0924E96E000E0A20EA6EEF500B6EC5
:102F3000050E016ED8900B36012E9AEF97F00B50CC
:102F40000C10DF6EF60EE3CFD9FFF70EE3CFDAFFFA
:102F5000DF500C6EE150F90FD96EE250DA6EFF0EC1
:102F6000DA220C3A0C46DF500C18DF0B0C18DF6E1F
:102F7000E150F90FD96EE250DA6EFF0EDA22DF80EF
:102F8000F80EE3500C0D500EF326000EF422FE0E48
:102F9000F3CFE3FFFF0EF4CFE3FFF90EE3CFE6FF3D
:102FA000E3CFE6FFE3CFE6FFE3CFE6FFFA0EE3CFA2
:102FB000E6FFE3CFE6FF9CEC9BF0F60EE126FF0E6A
:102FC000E2221200E652E652E652E652DD0EF66EBC
:102FD000FF0EF76E000EF86E0900F5CF09F009003C
:102FE000F5CF0AF00900F5CF0BF00900F5CF0CF092
:102FF000FC0E09C0E3FFFD0E0AC0E3FFFE0E0BC08E
:10300000E3FFFF0E0CC0E3FFE150FC0FD96EE2506E
:10301000DA6EFF0EDA22DF8EFA0EE3CF0BF0FB0E34
:10302000E3CF0CF0020E0B24D96E000E0C20DA6EEA
:10303000DF500C6EFF0EE124D96EFF0EE220DA6E37
:10304000DF500C18E00B0C18DF6EFA0EE3CF0BF01C
:10305000FB0EE3CF0CF0030E0B24D96E000E0C20F8
:10306000DA6EDF500C6EFF0EE124D96EFF0EE22007
:10307000DA6E0C3A0C46DF500C181F0B0C18DF6E82
:10308000FA0EE3CF0BF0FB0EE3CF0CF0010E0B2496
:10309000D96E000E0C20DA6EDF500C6EFE0EE124AD
:1030A000D96EFF0EE220DA6E0C3A0C46DF500C1897
:1030B0009F0B0C18DF6EFA0EE3CFD9FFFB0EE3CFA8
:1030C000DAFFDF500C6EFE0EE124D96EFF0EE22017
:1030D000DA6EDF500C18E00B0C18DF6EFC0EE3CF3D
:1030E000E6FFE3CFE6FFE3CFE6FFE3CFE6FF500ED8
:1030F000E66E000EE66E9CEC9BF0FA0EE126FF0EEB
:10310000E2221200050EE126000EE222DD0EF66E2E
:10311000FF0EF76E000EF86E0900F5CF09F00900FA
:10312000F5CF0AF00900F5CF0BF00900F5CF0CF050
:10313000FB0E09C0E3FFFC0E0AC0E3FFFD0E0BC04F
:10314000E3FFFE0E0CC0E3FFE150FB0FD96EE2502F
:10315000DA6EFF0EDA22F90EE3CFE9FFFA0EE3CFC3
:10316000EAFFEF90DFACB6EF98F0EF80FD0EE124C0
:10317000D96EFF0EE220DA6EDF501F0B0C6EF90ED7
:10318000E3CFD9FFFA0EE3CFDAFF0C46DF500C187D
:10319000C10B0C18DF6EFD0EE124D96EFF0EE2208C
:1031A000DA6EDF38E832030B0C6EF90EE3CFD9FF8D
:1031B000FA0EE3CFDAFF0C3A0C460C46DF500C183F
:1031C0003F0B0C18DF6EFE0EE124D96EFF0EE220DD
:1031D000DA6EDF501F0B0C6EF90EE3CF09F0FA0E1A
:1031E000E3CF0AF0010E0924D96E000E0A20DA6E30
:1031F000DF500C18E00B0C18DF6EFE0EE124D96EC8
:10320000FF0EE220DA6EDF38E832070B0C6EF90EA3
:10321000E3CF09F0FA0EE3CF0AF0010E0924D96ECC
:10322000000E0A20DA6E0C3A0C46DF500C181F0B09
:103230000C18DF6EF90EE126FF0EE2221200050ED9
:10324000E126000EE222F50EE350020F0B6EF60EA1
:10325000E3CF0CF0000E0C22FD0E0BC0E3FFFE0EC0
:103260000CC0E3FFFA0EE124D96EFF0EE220DA6E05
:10327000DF500F0B200F0101006FF90EE3CF01F1BA
:10328000020E0B6E000E0C6EFB0E0BC0E3FFFC0E6D
:103290000CC0E3FF7BEF99F0F70EE3CF0BF0F80ED5
:1032A000E3CF0CF0FB0EE3500B26FC0EE3500C2298
:1032B000FE0E0B24D96EFF0E0C20DA6EFB0EE3CF50
:1032C0000BF0FC0EE3CF0CF0000E0B24E96E010EA8
:1032D0000C20EA6EDFCFEFFFFB0EE350010F016E13
:1032E000FB0E01C0E3FF016AFC0EE3500120016EFA
:1032F000FC0E01C0E3FFFD0EE3CF0BF0FE0EE3CFAB
:103300000CF0FB0EE3CF09F0FC0EE3CF0AF00B50FC
:10331000095C0C500A58D8A090EF99F092EF99F000
:103320004CEF99F0FD0EE3CFE6FFE3CFE6FF000E92
:10333000E66E020EE66E000EE66E010EE66E39ECEB
:103340009DF0FF0E01C0E3FFFF0EE3CF01F0F50E8D
:10335000E126FF0EE22212000C0EE126000EE22210
:10336000010E096E0A6A0B6A0C6AF40E09C0E3FFCB
:10337000F50E0AC0E3FFF60E0BC0E3FFF70E0CC01C
:10338000E3FFF80EE124D96EFF0EE220DA6EDF6A69
:10339000F90EE124D96EFF0EE220DA6EDF6A0F0E1D
:1033A000096E0A6A0B6A0C6AFA0E09C0E3FFFB0E8B
:1033B0000AC0E3FFFC0E0BC0E3FFFD0E0CC0E3FFF1
:1033C000FF0EE124D96EFF0EE220DA6E010EDF6EF1
:1033D000FE0EE124D96EFF0EE220DA6EDF6ABFEC4A
:1033E000A4F0000EE66E080EE66E32EC8FF0FA0ED8
:1033F000E124016EFF0EE220026E01C0E6FF02C072
:10340000E6FFF20EE124016EFF0EE220026E01C023
:10341000E6FF02C0E6FF000EE66E00ECA2F0F2EC62
:1034200095F0620EE66E340EE66E010EE66E7BECF3
:10343000A4F0F28EF28C000EE66E000EE66E010E27
:10344000E66E580EE66E270EE66E010EE66E08EC8E
:103450009CF028EC91F03BECA1F029EF9AF057EFAB
:1034600000F0E652E652FF0EE36AFF0EE350080D4D
:10347000CA0EF324D96E020EF420DA6EDF50D8B4EF
:1034800044EF9AF046EF9AF0A0EF9AF0FF0EE35067
:10349000080DC80EF324D96E020EF420DA6E0A0E5F
:1034A000DE5E000EDD5AFF0EE350080DC80EF32459
:1034B000D96E020EF420DA6EDE50DE10D8A463EF6F
:1034C0009AF065EF9AF0A0EF9AF0FE0EE124016EFB
:1034D000FF0EE220026E01C0E6FF02C0E6FF010E11
:1034E000E66EFC0EE350080DCA0EF324D96E020EF0
:1034F000F420DA6E060EDECFE6FFE82C7BEF9AF0C2
:1035000032EC95F00104D8A488EF9AF08AEF9AF093
:1035100093EF9AF0010EE66EFE0EE350E66EFAECC3
:10352000A2F0A0EF9AF0FF0EE350080DC80EF324AE
:10353000D96E020EF420DA6E010EDE6E000EDD6E24
:10354000FF0EE32AFF0EE3CF01F00B0E0164ABEF99
:103550009AF0ADEF9AF035EF9AF0E552E55212008D
:10356000050EE126000EE222DD0EF66EFF0EF76E6E
:10357000000EF86E0900F5CF09F00900F5CF0AF04A
:103580000900F5CF0BF00900F5CF0CF0FB0E09C0D8
:10359000E3FFFC0E0AC0E3FFFD0E0BC0E3FFFE0ECF
:1035A0000CC0E3FFF90EE3CFD9FFFA0EE3CFDAFF49
:1035B000FD0EE124E96EFF0EE220EA6EEF501F0BD4
:1035C000DF6EF90EE3CF0BF0FA0EE3CF0CF0010E35
:1035D0000B24D96E000E0C20DA6EFD0EE124E96E8C
:1035E000FF0EE220EA6EEF38E832030BDF6EF90ED1
:1035F000E3CF0BF0FA0EE3CF0CF0020E0B24D96EE2
:10360000000E0C20DA6EFE0EE124E96EFF0EE220C1
:10361000EA6EEF501F0BDF6EF90EE3CF0BF0FA0EE0
:10362000E3CF0CF0030E0B24D96E000E0C20DA6EE3
:10363000FE0EE124E96EFF0EE220EA6EEF38E8327A
:10364000070BDF6EF90EE126FF0EE2221200E652B2
:10365000F60EE350E66EB3ECA4F0FF0EE36AFF0E45
:10366000E350080DCA0EF324D96E020EF420DA6E70
:10367000DF50D8A43EEF9BF040EF9BF086EF9BF02D
:10368000E150FD0FD96EE250DA6EFF0EDA22FF0E26
:10369000E350080DC80EF324E96E020EF420EA6E22
:1036A000DECFEEFFDDCFEDFFF70EE124D96EFF0E8A
:1036B000E220DA6EFF0EE350080DCA0EF324E96E25
:1036C000020EF420EA6E050EDBCFEBFFE806FCE20B
:1036D000E1C3E8FF010FE8CFE1F323EEE1F003EEF1
:1036E000E0F0DE50EE5CD8B078EF9BF07AEF9BF024
:1036F0007CEF9BF0E1C3E0F3F60EE350E66EA7EC3F
:10370000A4F0FF0EE3CF01F097EF9BF0FF0EE32A4A
:10371000FF0EE3CF01F00B0E016491EF9BF093EFEE
:103720009BF02FEF9BF0D6ECA4F07CEF9BF0F60E15
:10373000E126FF0EE2221200E652E652E652E6527F
:10374000060E0B6E000E0C6EFC0E0BC0E3FFFD0EA2
:103750000CC0E3FFFB0EE124D96EFF0EE220DA6E0F
:10376000DF500F0B200F0101006FFA0EE3CF01F1C4
:10377000FE0EE36AFE0EE3500B6E0C6A020E0B2483
:10378000D96E010E0C20DA6EF60EE3CF09F0F70EBB
:10379000E3CF0AF0F80EE3CF0BF0F90EE3CF0CF015
:1037A000FE0EE350080DF350E82ADCEF9BF0D890B2
:1037B0000C320B320A320932E82ED7EF9BF0095057
:1037C000DF6EFE0EE32AFE0EE3CF01F0030E01646E
:1037D000ECEF9BF0EEEF9BF0BAEF9BF0FC0EE3CF2B
:1037E000E6FFE3CFE6FF000EE66E020EE66E000E89
:1037F000E66E010EE66E39EC9DF0FF0E01C0E3FFB0
:10380000FF0EE3CF01F0F60EE126FF0EE2221200DA
:10381000070EE126000EE222FF0EE36AE384E38650
:10382000F90EE124016EFF0EE220026E01C0E6FFF8
:1038300002C0E6FF51ECA3F0F60EE3CFE6FFE3CFC4
:10384000E6FFE3CFE6FFF60EE124016EFF0EE22075
:10385000026E01C0E6FF02C0E6FF9DECA3F0F50E8C
:10386000E350E66EF80EE124016EFF0EE220026ED8
:1038700001C0E6FF02C0E6FF9AECA4F0F30EE3CF2E
:10388000E6FFE3CFE6FFF70EE124016EFF0EE22034
:10389000026E01C0E6FF02C0E6FFD8ECA3F0FF0E07
:1038A000E124016EFF0EE220026E01C0E6FF02C0BD
:1038B000E6FF000EE66EF60EE124D96EFF0EE22062
:1038C000DA6E060EDECFE6FFE82C62EF9CF032ECFB
:1038D00095F0F30EE126FF0EE22212000B0EE12618
:1038E000000EE222FA0EE36AFB0EE124D96EFF0E0F
:1038F000E220DA6EDE6ADE6ADD6AF40EE350E66E1E
:10390000B3ECA4F023EEDFF0DF50D8A48AEF9CF0F4
:103910008CEF9CF0A1EF9CF0F40EE350E66EA7EC68
:10392000A4F0FA0EE124D96EFF0EE220DA6E060E44
:10393000016EF40EDECFE3FFE828012EFBD7CFEFB8
:103940009CF023EEDDF0DF50060D280EF324D96E37
:10395000030EF420DA6E060E016EFA0EDECFE3FFE0
:10396000E828012EFBD71E0EE66E000EE66E23EE53
:10397000DDF0DF500B6E0C6A010E0B26000E0C22E0
:103980000BC0E6FF0CC0E6FF9CEC96F001C0DDF337
:10399000DFC3E8FFFF0FE8CFDFF38CEF9CF0FA0EF8
:1039A000E126FF0EE2221200E652E652E652E6520D
:1039B000040E0B6E000E0C6EFC0E0BC0E3FFFD0E32
:1039C0000CC0E3FFFB0EE124D96EFF0EE220DA6E9D
:1039D000DF500F0B200F0101006FFA0EE3CF01F152
:1039E000FE0EE36AFE0EE3500B6E0C6A020E0B2411
:1039F000D96E010E0C20DA6EFE0EE350080DF3CFE7
:103A00000CF0F80EE3CF09F0F90EE3CF0AF00C2A20
:103A10000DEF9DF0D8900A3209320C2E0AEF9DF07E
:103A20000950DF6EFE0EE32AFE0EE3CF01F0010E19
:103A300001641DEF9DF01FEF9DF0F2EF9CF0FC0E76
:103A4000E3CFE6FFE3CFE6FF000EE66E020EE66E82
:103A5000000EE66E010EE66E39EC9DF0FF0E01C021
:103A6000E3FFFF0EE3CF01F0F80EE126FF0EE222A6
:103A70001200E6528F9886EF9DF06490FF0E66CF9D
:103A8000E3FFFD0EE3CFD9FFFE0EE3CFDAFFDF50F9
:103A9000666E64A04EEF9DF050EF9DF049EF9DF0F3
:103AA000FB0EE3CFD9FFFC0EE3CFDAFF66CFDFFFDB
:103AB000FD0EE350010F016EFD0E01C0E3FF016A30
:103AC000FE0EE3500120016EFE0E01C0E3FFFB0E6F
:103AD000E350010F016EFB0E01C0E3FF016AFC0E13
:103AE000E3500120016EFC0E01C0E3FFF90EE3CFAD
:103AF00001F0010E015EF90E01C0E3FFFA0EE3CF03
:103B000001F0000E015AFA0E01C0E3FFF90EE3CFF7
:103B100001F0FA0EE3500110D8A491EF9DF093EF5D
:103B20009DF03DEF9DF08F88000E016EF90EE126AD
:103B3000FF0EE2221200E652E652E652E652DD0E97
:103B4000F66EFF0EF76E000EF86E0900F5CF09F065
:103B50000900F5CF0AF00900F5CF0BF00900F5CF09
:103B60000CF0FC0E09C0E3FFFD0E0AC0E3FFFE0EE1
:103B70000BC0E3FFFF0E0CC0E3FFFA0EE3CFD9FF4B
:103B8000FB0EE3CFDAFFDF301F0B0C6EFF0EE124DC
:103B9000D96EFF0EE220DA6EDF500C18E00B0C1825
:103BA000DF6EFA0EE3CFD9FFFB0EE3CFDAFFE15071
:103BB000FC0FE96EE250EA6EFF0EEA22EF9ADFA0F8
:103BC000E3EF9DF0EF8AFC0EE3CFE6FFE3CFE6FFE5
:103BD000E3CFE6FFE3CFE6FF400EE66E000EE66EB3
:103BE0009CEC9BF0FA0EE126FF0EE222120063BA73
:103BF000FCEF9DF0FEEF9DF050EF9EF0FF0EE350C6
:103C0000040D010EF326000EF422E90EF324F66EE5
:103C1000FF0EF420F76EF86A000EF8220800F5CFC8
:103C200064FFFF0EE350040DE90EF324F66EFF0E61
:103C3000F420F76EF86A000EF8220800F5CF63FF53
:103C4000626AFF0EE350040D020EF326000EF4220A
:103C5000E90EF324F66EFF0EF420F76EF86A000EFC
:103C6000F8220800F5CF65FFFF0EE350040D030EA8
:103C7000F326000EF422E90EF324F66EFF0EF42074
:103C8000F76EF86A000EF8220800F5CF0CF00C3A37
:103C90000C460C4695500C18BF0B0C18956E638A99
:103CA000E5521200180EE126000EE22220EE21F06D
:103CB000100E016EE80EDECFE3FFE828012EFBD7E1
:103CC000E70EE3503F18D8B468EF9EF06AEF9EF01D
:103CD000A7EF9EF0E70EE3CF3FF0120E096E010E44
:103CE0000A6E000E0B6E000E0C6EE80E09C0E3FFAC
:103CF000E90E0AC0E3FFEA0E0BC0E3FFEB0E0CC0B7
:103D0000E3FFEE0EE124D96EFF0EE220DA6EDF5003
:103D1000F00B0109DF6EE70EE3CF01F0F80E01C0F2
:103D2000E3FFF80EE124016EFF0EE220026E01C0F7
:103D3000E6FF02C0E6FFE60EE124016EFF0EE22080
:103D4000026E01C0E6FF02C0E6FFB4EC9FF0E70E92
:103D5000E126FF0EE2221200180EE126000EE222FA
:103D600020EE7BF0100E016EE80EDECFE3FFE828B8
:103D7000012EFBD7E70EE3503B18D8B4C2EF9EF0FC
:103D8000C4EF9EF001EF9FF0E70EE3CF3BF0190E7A
:103D9000096E010E0A6E000E0B6E000E0C6EE80E20
:103DA00009C0E3FFE90E0AC0E3FFEA0E0BC0E3FF20
:103DB000EB0E0CC0E3FFEE0EE124D96EFF0EE22005
:103DC000DA6EDF50F00B0109DF6EE70EE3CF01F092
:103DD000F80E01C0E3FFF80EE124016EFF0EE220B1
:103DE000026E01C0E6FF02C0E6FFE60EE124016EAE
:103DF000FF0EE220026E01C0E6FF02C0E6FFB4EC57
:103E00009FF0E70EE126FF0EE2221200180EE126D7
:103E1000000EE22220EE8BF0100E016EE80EDECFD7
:103E2000E3FFE828012EFBD7E70EE3503C18D8B497
:103E30001CEF9FF01EEF9FF058EF9FF0E70EE3CFCF
:103E40003CF0190E096E0A6A0B6A0C6AE80E09C08A
:103E5000E3FFE90E0AC0E3FFEA0E0BC0E3FFEB0E3F
:103E60000CC0E3FFEE0EE124D96EFF0EE220DA6E05
:103E7000DF50F00B0109DF6EE70EE3CF01F0F80E23
:103E800001C0E3FFF80EE124016EFF0EE220026E96
:103E900001C0E6FF02C0E6FFE60EE124016EFF0E60
:103EA000E220026E01C0E6FF02C0E6FFB4EC9FF024
:103EB000E70EE126FF0EE2221200080EE126000EB8
:103EC000E222F70EE3500C0D510EF326000EF42201
:103ED000FD0EF3CFE3FFFE0EF4CFE3FFF80EE36A2F
:103EE000F90EE36AFA0EE36AFB0EE36AF90EE124C7
:103EF000D96EFF0EE220DA6EDF80F60EE350D8B402
:103F000084EF9FF086EF9FF08DEF9FF0F90EE12494
:103F1000D96EFF0EE220DA6EDF82F90EE124D96E4F
:103F2000FF0EE220DA6EDF50E66EFC0EE3CFE6FF16
:103F3000E3CFE6FF26ECA3F0FF0E01C0E3FFFF0E88
:103F4000E350D8B4A6EF9FF0A8EF9FF0ACEF9FF03E
:103F5000FF0E016EAFEF9FF0FF0EE3CF01F0F60E04
:103F6000E126FF0EE2221200E652FD0EE3CF0BF037
:103F7000FE0EE3CF0CF0080E0B24D96E000E0C20C1
:103F8000DA6E010EDE6E000EDE6E000EDE6E000ECC
:103F9000DD6EFF0EE124016EFF0EE220026E01C015
:103FA000E6FF02C0E6FF010EE66E5BECA0F0FF0E3E
:103FB000E3A0DDEF9FF0DFEF9FF004EFA0F0010E34
:103FC000E66EFC0EE3CF0BF0FD0EE3CF0CF0060E19
:103FD0000B24D96E000E0C20DA6EDF500F0B0C6E26
:103FE0000CC0E6FF000EE66EE66EE66EF60EE3CF60
:103FF000E6FFE3CFE6FFF60EE3CFE6FFE3CFE6FF13
:10400000010EE66E00EC80F0FB0EE126FF0EE222D0
:104010001200070EE126000EE222F80EE350D8A4AB
:1040200014EFA0F016EFA0F018EFA0F056EFA0F0FC
:10403000F90EE36AFA0EE36AFB0EE36AFC0EE36A2A
:10404000F80EE3500C0D540EF326000EF422FD0E74
:10405000F3CFE3FFFE0EF4CFE3FFF90EE124016E90
:10406000FF0EE220026E01C0E6FF02C0E6FFFB0E7B
:10407000E3CFE6FFE3CFE6FF99ECA2F0FF0E01C02D
:10408000E3FFFF0EE350D8B448EFA0F04AEFA0F0F2
:104090004CEFA0F056EFA0F0F60EE3CFD9FFF70EED
:1040A000E3CFDAFFF90EE3500F0BDF6EF60EE126D9
:1040B000FF0EE2221200070EE126000EE222F90EA8
:1040C000E36AFA0EE36AFB0EE36AFC0EE36AF80E9B
:1040D000E3500C0D540EF326000EF422FD0EF3CF28
:1040E000E3FFFE0EF4CFE3FFF90EE124016EFF0EB5
:1040F000E220026E01C0E6FF02C0E6FFFB0EE3CF46
:10410000E6FFE3CFE6FF99ECA2F0FF0E01C0E3FF6C
:10411000FF0EE350D8B48FEFA0F091EFA0F095EF31
:10412000A0F0FF0E016EA2EFA0F0F60EE3CFD9FFD4
:10413000F70EE3CFDAFFF90EE350170BDF6EFF0E39
:10414000E3CF01F0F60EE126FF0EE2221200E65266
:10415000E652E652FA0EE350D8B4B1EFA0F0B3EF56
:10416000A0F0BDEFA0F0E150FF0FD96EE250DA6E83
:10417000FF0EDA22DF8EC5EFA0F0E150FF0FD96EFF
:10418000E250DA6EFF0EDA22DF9EFB0EE3CF0CF078
:10419000E150FF0FD96EE250DA6EFF0EDA22DF50E7
:1041A0000C18E00B0C18DF6EFC0EE3CF0CF0D00EF9
:1041B0000C24096E0A6A010E0A22FD0E09C0E3FFF3
:1041C000FE0E0AC0E3FFFF0EE350E66EFC0EE3CFE7
:1041D000E6FFE3CFE6FF26ECA3F0FA0EE126FF0EA2
:1041E000E2221200E652E652E652E652FB0EE3CF1E
:1041F0000CF0D00E0C24096E0A6A010E0A22FC0E85
:1042000009C0E3FFFD0E0AC0E3FFFF0EE124016ECB
:10421000FF0EE220026E01C0E6FF02C0E6FFFA0ECA
:10422000E3CFE6FFE3CFE6FF99ECA2F0FE0E01C07C
:10423000E3FFFE0EE350D8B420EFA1F022EFA1F08F
:1042400024EFA1F036EFA1F0E150FF0FD96EE2505C
:10425000DA6EFF0EDA22DF9EFF0EE350E66EFB0EF3
:10426000E3CFE6FFE3CFE6FF26ECA3F0FB0EE1266B
:10427000FF0EE2221200060EE126000EE222000EE0
:10428000E66E6EEC9CF0FA0EE124D96EFF0EE22091
:10429000DA6E060E016EDD50E552E750DF6E012E3C
:1042A000FAD7FB0EE124D96EFF0EE220DA6EDE5063
:1042B000DE10DE10D8B45FEFA1F061EFA1F07EEF69
:1042C000A1F0FA0EE124016EFF0EE220026E01C0A1
:1042D000E6FF02C0E6FFF90EE124D96EFF0EE220F0
:1042E000DA6E02D87EEFA1F00500FA6EDE50FD6EA8
:1042F000DE50FE6EDE50FF6EFA501200FA0EE1261E
:10430000FF0EE2221200E652E652FE0EE36AFE0EB5
:10431000E124016EFF0EE220026E01C0E6FF02C042
:10432000E6FF030EE66E000EE66E99ECA2F0FF0EBD
:1043300001C0E3FFFF0EE350D8B4A1EFA1F0A3EF5B
:10434000A1F0A5EFA1F0C2EFA1F0FE0EE3CF01F0C6
:10435000F80E0116FE0E01C0E3FFFD0EE3CF0CF0D8
:10436000E150FE0FD96EE250DA6EFF0EDA220C50E9
:10437000DF12FE0EE350E66E030EE66E000EE66EF2
:1043800026ECA3F0E552E552E5521200080EE126B4
:10439000000EE222F80EE36AF90EE36AFA0EE36A0F
:1043A000FB0EE36AF70EE3500C0D510EF326000EE0
:1043B000F422FD0EF3CFE3FFFE0EF4CFE3FFF90E80
:1043C000E124D96EFF0EE220DA6EDF80F90EE124DF
:1043D000D96EFF0EE220DA6EDF50E66EFC0EE3CF00
:1043E000E6FFE3CFE6FF26ECA3F0FF0E01C0E3FFFC
:1043F000FF0EE3CF01F0F70EE126FF0EE2221200DE
:10440000FF0EE350E66EF2ECA0F0FD0EE3CFE6FF08
:10441000E3CFE6FFFD0EE350E66E1AEC87F0FD0EEB
:10442000E3CF0BF0FE0EE3CF0CF0050E0B24D96E9C
:10443000000E0C20DA6EDF50E66EFA0EE3CFE6FFD8
:10444000E3CFE6FFFC0EE350E66EBFEC88F0010E12
:10445000E66E020EE66EFD0EE350E66EA7ECA0F0EF
:10446000FB0EE126FF0EE2221200E652FF0EE124CF
:10447000016EFF0EE220026E01C0E6FF02C0E6FF01
:10448000020EE66E09ECA0F0FF0EE3A04AEFA2F0E8
:104490004CEFA2F060EFA2F0080EE66EFA0EE3CF4A
:1044A000E6FFE3CFE6FFFA0EE3CFE6FFE3CFE6FF5A
:1044B000020EE66EA6EC83F0000E016E62EFA2F033
:1044C000FF0E016EFB0EE126FF0EE2221200E65205
:1044D000E652FE0EE36AFF0EE36AFB0EE3CF0BF03B
:1044E000FC0EE3CF0CF01F0E0B14096EFF0E0C1424
:1044F0000A6EFE0EE3CF01F009500112FE0E01C05C
:10450000E3FFFF0EE3CF01F00A500112FF0E01C0DE
:10451000E3FFFE0EE3CFE6FFE3CFE6FF1E0EE66EFF
:10452000000EE66ED4EC9CF0FB0EE126FF0EE222BC
:104530001200E652FE0EE124D96EFF0EE220DA6E82
:10454000DF500F0B300F0101006FFD0EE3CF01F1C3
:10455000026B030EE66E000EE66E000EE66E020EB5
:10456000E66E000EE66E010EE66E39EC9DF0FF0E73
:1045700001C0E3FFFB0EE3CFD9FFFC0EE3CFDAFF70
:1045800002C2DFFFFF0EE3CF01F0FB0EE126FF0EBC
:10459000E2221200E652E652FE0EE36AFE0EE1242B
:1045A000016EFF0EE220026E01C0E6FF02C0E6FFD0
:1045B000160EE66E000EE66E99ECA2F0FF0E01C03C
:1045C000E3FFFF0EE350D8B4E8EFA2F0EAEFA2F069
:1045D000ECEFA2F0F7EFA2F0FE0EE380FE0EE35048
:1045E000E66E160EE66E000EE66E26ECA3F0E552C1
:1045F000E5521200FE0EE350E66EB3ECA4F0FF0E9F
:10460000E350080DC80EF324D96E020EF420DA6EC2
:10461000DE6ADD6AFF0EE350080DCA0EF3240B6E4E
:10462000020EF4200C6E0BC0E6FF0CC0E6FF51EC4E
:10463000A3F0E1C3E8FFFF0FE8CFE1F3FE0EE35084
:10464000E66EA7ECA4F0E552E5521200E652FE0E2B
:10465000E124D96EFF0EE220DA6EDF500F0B200F3F
:104660000101006FFD0EE3CF01F1FC0EE3CF02F17B
:10467000030EE66E000EE66E000EE66E020EE66EAD
:10468000000EE66E010EE66E39EC9DF0FF0E01C0E5
:10469000E3FFFF0EE3CF01F0E552E552E552E552AC
:1046A0001200FE0EE3CFD9FFFF0EE3CFDAFFDF6A81
:1046B000FE0EE3CF0BF0FF0EE3CF0CF0040E0B2445
:1046C000D96E000E0C20DA6EDE6ADD6AFE0EE3CFD4
:1046D0000BF0FF0EE3CF0CF0010E0B24D96E000E91
:1046E0000C20DA6EDE6ADE6ADD6AE552E5521200FF
:1046F00002EEC8F021EE1AF0EE6ADD50D950FCE16E
:10470000DA50FAE102EE00F0C80EEE6AE806FDE1CA
:1047100001EE00F0C80EEE6AE806FDE100EE60F082
:104720003B0EEE6AE806FDE100EE21F01F0EEE6A98
:10473000E806FDE10001ACEF99F0E150FB0FD96E06
:10474000E250DA6EFF0EDA22FE0EE3CF0BF0FF0E20
:10475000E3CF0CF0010E0B24E96E000E0C20EA6E84
:10476000DECFEEFFDECFEEFFDECFEEFFFB0EE1266B
:10477000FF0EE2221200D59CFD0ED76E9D0ED66E66
:10478000D650D7CF01F0026A01C002F0016A0110D1
:10479000376E0250386EF294F28ABC0EE66E490E05
:1047A000E66E010EE66E7BECA4F0970ED56E12005D
:1047B000E150FC0FD96EE250DA6EFF0EDA22FE0EE7
:1047C000E3CF0BF0FF0EE3CF0CF0040E0B24E96EE9
:1047D000000E0C20EA6EDECFEEFFDDCFEDFFE552DE
:1047E000E552E552E5521200010E0001756F50507E
:1047F00051105210D8B4FFEFA3F001EFA4F00EEF68
:10480000A4F002D80EEFA4F00500FA6E5050FD6E31
:104810005150FE6E5250FF6EFA5012001200F29488
:1048200038C0D7FF37C0D6FF010E0001766F354A7A
:10483000362A35503610D8B420EFA4F022EFA4F079
:1048400026EFA4F0F4ECA3F0356A366A12008D6A04
:10485000916A8C6A896A8E6A8A6A8F6A8B6A906AA0
:10486000966897683F0E926E986893689968946806
:10487000AF0E956E9A68F00EC11612000101006B22
:10488000016B000EE66EF7EC9DF0020EE66E000E78
:10489000E66E000EE66E020EE66E000EE66E010E8D
:1048A000E66E39EC9DF01200FC0EE3CFE6FFE3CF9D
:1048B000E6FFE3CFE6FFE3CFE6FF100EE66E000E65
:1048C000E66E9CEC9BF0E552E552E552E552120093
:1048D000FE0EE3CF0BF0FF0EE3CF0CF0040E0B2423
:1048E000D96E000E0C20DA6EDECF01F0DDCF02F0C3
:1048F000E552E5521200E150FD0FD96EE250DA6E3A
:10490000FF0EDA22DECF50F0DECF51F0DDCF52F0D5
:10491000E552E552E5521200FE0EE3CFE6FFE3CF8B
:10492000E6FF140EE66E000EE66ED4EC9CF0E55247
:10493000E5521200FE0EE3CFD9FFFF0EE3CFDAFF00
:10494000FD0EE3CFDFFFE552E552E5521200FF0E08
:10495000E350D8A4AEEFA4F0B0EFA4F0B1EFA4F010
:10496000F28EE5521200FF0EE350D8A4BAEFA4F085
:10497000BCEFA4F0BDEFA4F0F29EE5521200DCEC17
:10498000A4F0CAECA4F027ECA4F0D2ECA4F0BBECA9
:10499000A3F01200400E646E010E636E656A959C72
:1049A000639A1200D36A500E9B6E1200D6EFA4F0E9
:0E49B0001200D9EFA4F01200D09E12001200E7
:06FFF800A0F4C5FFF8F7BC
:00000001FF
